{
  "contractName": "ERC20TransferProxy",
  "abi": [
    {
      "anonymous": false,
      "inputs": [
        {
          "indexed": true,
          "internalType": "address",
          "name": "previousOwner",
          "type": "address"
        },
        {
          "indexed": true,
          "internalType": "address",
          "name": "newOwner",
          "type": "address"
        }
      ],
      "name": "OwnershipTransferred",
      "type": "event"
    },
    {
      "inputs": [],
      "name": "__OperatorRole_init",
      "outputs": [],
      "stateMutability": "nonpayable",
      "type": "function"
    },
    {
      "inputs": [
        {
          "internalType": "address",
          "name": "operator",
          "type": "address"
        }
      ],
      "name": "addOperator",
      "outputs": [],
      "stateMutability": "nonpayable",
      "type": "function"
    },
    {
      "inputs": [],
      "name": "owner",
      "outputs": [
        {
          "internalType": "address",
          "name": "",
          "type": "address"
        }
      ],
      "stateMutability": "view",
      "type": "function"
    },
    {
      "inputs": [
        {
          "internalType": "address",
          "name": "operator",
          "type": "address"
        }
      ],
      "name": "removeOperator",
      "outputs": [],
      "stateMutability": "nonpayable",
      "type": "function"
    },
    {
      "inputs": [],
      "name": "renounceOwnership",
      "outputs": [],
      "stateMutability": "nonpayable",
      "type": "function"
    },
    {
      "inputs": [
        {
          "internalType": "address",
          "name": "newOwner",
          "type": "address"
        }
      ],
      "name": "transferOwnership",
      "outputs": [],
      "stateMutability": "nonpayable",
      "type": "function"
    },
    {
      "inputs": [],
      "name": "__ERC20TransferProxy_init",
      "outputs": [],
      "stateMutability": "nonpayable",
      "type": "function"
    },
    {
      "inputs": [
        {
          "internalType": "contract IERC20Upgradeable",
          "name": "token",
          "type": "address"
        },
        {
          "internalType": "address",
          "name": "from",
          "type": "address"
        },
        {
          "internalType": "address",
          "name": "to",
          "type": "address"
        },
        {
          "internalType": "uint256",
          "name": "value",
          "type": "uint256"
        }
      ],
      "name": "erc20safeTransferFrom",
      "outputs": [],
      "stateMutability": "nonpayable",
      "type": "function"
    }
  ],
  "bytecode": "0x608060405234801561001057600080fd5b50610c04806100206000396000f3fe608060405234801561001057600080fd5b50600436106100885760003560e01c80638da5cb5b1161005b5780638da5cb5b146100e35780639870d7fe14610107578063ac8a584a1461012d578063f2fde38b1461015357610088565b80632ff26a0a1461008d578063715018a614610097578063759781271461009f578063776062c3146100a7575b600080fd5b610095610179565b005b61009561022b565b6100956102d7565b610095600480360360808110156100bd57600080fd5b506001600160a01b0381358116916020810135821691604082013516906060013561036c565b6100eb6103eb565b604080516001600160a01b039092168252519081900360200190f35b6100956004803603602081101561011d57600080fd5b50356001600160a01b03166103fa565b6100956004803603602081101561014357600080fd5b50356001600160a01b0316610480565b6100956004803603602081101561016957600080fd5b50356001600160a01b0316610503565b600054610100900460ff16806101925750610192610606565b806101a0575060005460ff16155b6101db5760405162461bcd60e51b815260040180806020018281038252602e815260200180610b2f602e913960400191505060405180910390fd5b600054610100900460ff16158015610206576000805460ff1961ff0019909116610100171660011790555b61020e610617565b6102166106b7565b8015610228576000805461ff00191690555b50565b6102336107b0565b6001600160a01b03166102446103eb565b6001600160a01b03161461028d576040805162461bcd60e51b81526020600482018190526024820152600080516020610b5d833981519152604482015290519081900360640190fd5b6033546040516000916001600160a01b0316907f8be0079c531659141344cd1fd0a4f28419497f9722a3daafe3b4186f6b6457e0908390a3603380546001600160a01b0319169055565b600054610100900460ff16806102f057506102f0610606565b806102fe575060005460ff16155b6103395760405162461bcd60e51b815260040180806020018281038252602e815260200180610b2f602e913960400191505060405180910390fd5b600054610100900460ff16158015610364576000805460ff1961ff0019909116610100171660011790555b610216610179565b606560006103786107b0565b6001600160a01b0316815260208101919091526040016000205460ff166103d05760405162461bcd60e51b8152600401808060200182810382526028815260200180610b7d6028913960400191505060405180910390fd5b6103e56001600160a01b0385168484846107b4565b50505050565b6033546001600160a01b031690565b6104026107b0565b6001600160a01b03166104136103eb565b6001600160a01b03161461045c576040805162461bcd60e51b81526020600482018190526024820152600080516020610b5d833981519152604482015290519081900360640190fd5b6001600160a01b03166000908152606560205260409020805460ff19166001179055565b6104886107b0565b6001600160a01b03166104996103eb565b6001600160a01b0316146104e2576040805162461bcd60e51b81526020600482018190526024820152600080516020610b5d833981519152604482015290519081900360640190fd5b6001600160a01b03166000908152606560205260409020805460ff19169055565b61050b6107b0565b6001600160a01b031661051c6103eb565b6001600160a01b031614610565576040805162461bcd60e51b81526020600482018190526024820152600080516020610b5d833981519152604482015290519081900360640190fd5b6001600160a01b0381166105aa5760405162461bcd60e51b8152600401808060200182810382526026815260200180610ae36026913960400191505060405180910390fd5b6033546040516001600160a01b038084169216907f8be0079c531659141344cd1fd0a4f28419497f9722a3daafe3b4186f6b6457e090600090a3603380546001600160a01b0319166001600160a01b0392909216919091179055565b60006106113061080e565b15905090565b600054610100900460ff16806106305750610630610606565b8061063e575060005460ff16155b6106795760405162461bcd60e51b815260040180806020018281038252602e815260200180610b2f602e913960400191505060405180910390fd5b600054610100900460ff16158015610216576000805460ff1961ff0019909116610100171660011790558015610228576000805461ff001916905550565b600054610100900460ff16806106d057506106d0610606565b806106de575060005460ff16155b6107195760405162461bcd60e51b815260040180806020018281038252602e815260200180610b2f602e913960400191505060405180910390fd5b600054610100900460ff16158015610744576000805460ff1961ff0019909116610100171660011790555b600061074e6107b0565b603380546001600160a01b0319166001600160a01b038316908117909155604051919250906000907f8be0079c531659141344cd1fd0a4f28419497f9722a3daafe3b4186f6b6457e0908290a3508015610228576000805461ff001916905550565b3390565b604080516001600160a01b0380861660248301528416604482015260648082018490528251808303909101815260849091019091526020810180516001600160e01b03166323b872dd60e01b1790526103e5908590610814565b3b151590565b6000610869826040518060400160405280602081526020017f5361666545524332303a206c6f772d6c6576656c2063616c6c206661696c6564815250856001600160a01b03166108ca9092919063ffffffff16565b8051909150156108c55780806020019051602081101561088857600080fd5b50516108c55760405162461bcd60e51b815260040180806020018281038252602a815260200180610ba5602a913960400191505060405180910390fd5b505050565b60606108d984846000856108e3565b90505b9392505050565b6060824710156109245760405162461bcd60e51b8152600401808060200182810382526026815260200180610b096026913960400191505060405180910390fd5b61092d8561080e565b61097e576040805162461bcd60e51b815260206004820152601d60248201527f416464726573733a2063616c6c20746f206e6f6e2d636f6e7472616374000000604482015290519081900360640190fd5b600080866001600160a01b031685876040518082805190602001908083835b602083106109bc5780518252601f19909201916020918201910161099d565b6001836020036101000a03801982511681845116808217855250505050505090500191505060006040518083038185875af1925050503d8060008114610a1e576040519150601f19603f3d011682016040523d82523d6000602084013e610a23565b606091505b5091509150610a33828286610a3e565b979650505050505050565b60608315610a4d5750816108dc565b825115610a5d5782518084602001fd5b8160405162461bcd60e51b81526004018080602001828103825283818151815260200191508051906020019080838360005b83811015610aa7578181015183820152602001610a8f565b50505050905090810190601f168015610ad45780820380516001836020036101000a031916815260200191505b509250505060405180910390fdfe4f776e61626c653a206e6577206f776e657220697320746865207a65726f2061646472657373416464726573733a20696e73756666696369656e742062616c616e636520666f722063616c6c496e697469616c697a61626c653a20636f6e747261637420697320616c726561647920696e697469616c697a65644f776e61626c653a2063616c6c6572206973206e6f7420746865206f776e65724f70657261746f72526f6c653a2063616c6c6572206973206e6f7420746865206f70657261746f725361666545524332303a204552433230206f7065726174696f6e20646964206e6f742073756363656564a26469706673582212209cdfc7ec51b92fb71224e1b8d2181456894d1696e9e1aca6e4c02228df81915c64736f6c63430007060033",
  "immutableReferences": {},
  "source": "// SPDX-License-Identifier: MIT\n\npragma solidity >=0.6.9 <0.8.0;\n\nimport \"../roles/OperatorRole.sol\";\nimport \"@openzeppelin/contracts-upgradeable/token/ERC20/IERC20Upgradeable.sol\";\nimport \"@openzeppelin/contracts-upgradeable/token/ERC20/SafeERC20Upgradeable.sol\";\n\ncontract ERC20TransferProxy is Initializable, OperatorRole {\n    using SafeERC20Upgradeable for IERC20Upgradeable;\n\n    function __ERC20TransferProxy_init() external initializer {\n        __Ownable_init();\n    }\n\n    function erc20safeTransferFrom(IERC20Upgradeable token, address from, address to, uint256 value) external onlyOperator {\n        token.safeTransferFrom(from, to, value);\n    }\n}\n",
  "sourcePath": "F:/Development/ideasoft/dArtFlex/protocol-contracts/exchange-v2/contracts/transfers/ERC20TransferProxy.sol",
  "compiler": {
    "name": "solc",
    "version": "0.7.6+commit.7338295f.Emscripten.clang"
  },
  "schemaVersion": "3.4.1",
  "updatedAt": "2021-09-22T02:32:14.903Z",
  "devdoc": {
    "kind": "dev",
    "methods": {
      "owner()": {
        "details": "Returns the address of the current owner."
      },
      "renounceOwnership()": {
        "details": "Leaves the contract without owner. It will not be possible to call `onlyOwner` functions anymore. Can only be called by the current owner. NOTE: Renouncing ownership will leave the contract without an owner, thereby removing any functionality that is only available to the owner."
      },
      "transferOwnership(address)": {
        "details": "Transfers ownership of the contract to a new account (`newOwner`). Can only be called by the current owner."
      }
    },
    "version": 1
  },
  "userdoc": {
    "kind": "user",
    "methods": {},
    "version": 1
  }
}