{
  "contractName": "ExchangeV2",
  "abi": [
    {
      "anonymous": false,
      "inputs": [
        {
          "indexed": false,
          "internalType": "bytes32",
          "name": "hash",
          "type": "bytes32"
        }
      ],
      "name": "Cancel",
      "type": "event"
    },
    {
      "anonymous": false,
      "inputs": [
        {
          "indexed": false,
          "internalType": "bytes32",
          "name": "leftHash",
          "type": "bytes32"
        },
        {
          "indexed": false,
          "internalType": "bytes32",
          "name": "rightHash",
          "type": "bytes32"
        },
        {
          "indexed": true,
          "internalType": "address",
          "name": "leftMaker",
          "type": "address"
        },
        {
          "indexed": true,
          "internalType": "address",
          "name": "rightMaker",
          "type": "address"
        },
        {
          "indexed": false,
          "internalType": "uint256",
          "name": "newLeftFill",
          "type": "uint256"
        },
        {
          "indexed": false,
          "internalType": "uint256",
          "name": "newRightFill",
          "type": "uint256"
        }
      ],
      "name": "Match",
      "type": "event"
    },
    {
      "anonymous": false,
      "inputs": [
        {
          "indexed": true,
          "internalType": "bytes4",
          "name": "assetType",
          "type": "bytes4"
        },
        {
          "indexed": false,
          "internalType": "address",
          "name": "matcher",
          "type": "address"
        }
      ],
      "name": "MatcherChange",
      "type": "event"
    },
    {
      "anonymous": false,
      "inputs": [
        {
          "indexed": true,
          "internalType": "address",
          "name": "previousOwner",
          "type": "address"
        },
        {
          "indexed": true,
          "internalType": "address",
          "name": "newOwner",
          "type": "address"
        }
      ],
      "name": "OwnershipTransferred",
      "type": "event"
    },
    {
      "anonymous": false,
      "inputs": [
        {
          "indexed": true,
          "internalType": "bytes4",
          "name": "assetType",
          "type": "bytes4"
        },
        {
          "indexed": false,
          "internalType": "address",
          "name": "proxy",
          "type": "address"
        }
      ],
      "name": "ProxyChange",
      "type": "event"
    },
    {
      "anonymous": false,
      "inputs": [
        {
          "components": [
            {
              "components": [
                {
                  "internalType": "bytes4",
                  "name": "assetClass",
                  "type": "bytes4"
                },
                {
                  "internalType": "bytes",
                  "name": "data",
                  "type": "bytes"
                }
              ],
              "internalType": "struct LibAsset.AssetType",
              "name": "assetType",
              "type": "tuple"
            },
            {
              "internalType": "uint256",
              "name": "value",
              "type": "uint256"
            }
          ],
          "indexed": false,
          "internalType": "struct LibAsset.Asset",
          "name": "asset",
          "type": "tuple"
        },
        {
          "indexed": false,
          "internalType": "address",
          "name": "from",
          "type": "address"
        },
        {
          "indexed": false,
          "internalType": "address",
          "name": "to",
          "type": "address"
        },
        {
          "indexed": false,
          "internalType": "bytes4",
          "name": "transferDirection",
          "type": "bytes4"
        },
        {
          "indexed": false,
          "internalType": "bytes4",
          "name": "transferType",
          "type": "bytes4"
        }
      ],
      "name": "Transfer",
      "type": "event"
    },
    {
      "inputs": [],
      "name": "buyerFee",
      "outputs": [
        {
          "internalType": "uint256",
          "name": "",
          "type": "uint256"
        }
      ],
      "stateMutability": "view",
      "type": "function"
    },
    {
      "inputs": [
        {
          "components": [
            {
              "internalType": "address",
              "name": "maker",
              "type": "address"
            },
            {
              "components": [
                {
                  "components": [
                    {
                      "internalType": "bytes4",
                      "name": "assetClass",
                      "type": "bytes4"
                    },
                    {
                      "internalType": "bytes",
                      "name": "data",
                      "type": "bytes"
                    }
                  ],
                  "internalType": "struct LibAsset.AssetType",
                  "name": "assetType",
                  "type": "tuple"
                },
                {
                  "internalType": "uint256",
                  "name": "value",
                  "type": "uint256"
                }
              ],
              "internalType": "struct LibAsset.Asset",
              "name": "makeAsset",
              "type": "tuple"
            },
            {
              "internalType": "address",
              "name": "taker",
              "type": "address"
            },
            {
              "components": [
                {
                  "components": [
                    {
                      "internalType": "bytes4",
                      "name": "assetClass",
                      "type": "bytes4"
                    },
                    {
                      "internalType": "bytes",
                      "name": "data",
                      "type": "bytes"
                    }
                  ],
                  "internalType": "struct LibAsset.AssetType",
                  "name": "assetType",
                  "type": "tuple"
                },
                {
                  "internalType": "uint256",
                  "name": "value",
                  "type": "uint256"
                }
              ],
              "internalType": "struct LibAsset.Asset",
              "name": "takeAsset",
              "type": "tuple"
            },
            {
              "internalType": "uint256",
              "name": "salt",
              "type": "uint256"
            },
            {
              "internalType": "uint256",
              "name": "start",
              "type": "uint256"
            },
            {
              "internalType": "uint256",
              "name": "end",
              "type": "uint256"
            },
            {
              "internalType": "bytes4",
              "name": "dataType",
              "type": "bytes4"
            },
            {
              "internalType": "bytes",
              "name": "data",
              "type": "bytes"
            }
          ],
          "internalType": "struct LibOrder.Order",
          "name": "order",
          "type": "tuple"
        }
      ],
      "name": "cancel",
      "outputs": [],
      "stateMutability": "nonpayable",
      "type": "function"
    },
    {
      "inputs": [],
      "name": "communityWallet",
      "outputs": [
        {
          "internalType": "address",
          "name": "",
          "type": "address"
        }
      ],
      "stateMutability": "view",
      "type": "function"
    },
    {
      "inputs": [
        {
          "internalType": "bytes32",
          "name": "",
          "type": "bytes32"
        }
      ],
      "name": "fills",
      "outputs": [
        {
          "internalType": "uint256",
          "name": "",
          "type": "uint256"
        }
      ],
      "stateMutability": "view",
      "type": "function"
    },
    {
      "inputs": [],
      "name": "getChainId",
      "outputs": [
        {
          "internalType": "uint256",
          "name": "chainId",
          "type": "uint256"
        }
      ],
      "stateMutability": "view",
      "type": "function"
    },
    {
      "inputs": [
        {
          "components": [
            {
              "internalType": "address",
              "name": "maker",
              "type": "address"
            },
            {
              "components": [
                {
                  "components": [
                    {
                      "internalType": "bytes4",
                      "name": "assetClass",
                      "type": "bytes4"
                    },
                    {
                      "internalType": "bytes",
                      "name": "data",
                      "type": "bytes"
                    }
                  ],
                  "internalType": "struct LibAsset.AssetType",
                  "name": "assetType",
                  "type": "tuple"
                },
                {
                  "internalType": "uint256",
                  "name": "value",
                  "type": "uint256"
                }
              ],
              "internalType": "struct LibAsset.Asset",
              "name": "makeAsset",
              "type": "tuple"
            },
            {
              "internalType": "address",
              "name": "taker",
              "type": "address"
            },
            {
              "components": [
                {
                  "components": [
                    {
                      "internalType": "bytes4",
                      "name": "assetClass",
                      "type": "bytes4"
                    },
                    {
                      "internalType": "bytes",
                      "name": "data",
                      "type": "bytes"
                    }
                  ],
                  "internalType": "struct LibAsset.AssetType",
                  "name": "assetType",
                  "type": "tuple"
                },
                {
                  "internalType": "uint256",
                  "name": "value",
                  "type": "uint256"
                }
              ],
              "internalType": "struct LibAsset.Asset",
              "name": "takeAsset",
              "type": "tuple"
            },
            {
              "internalType": "uint256",
              "name": "salt",
              "type": "uint256"
            },
            {
              "internalType": "uint256",
              "name": "start",
              "type": "uint256"
            },
            {
              "internalType": "uint256",
              "name": "end",
              "type": "uint256"
            },
            {
              "internalType": "bytes4",
              "name": "dataType",
              "type": "bytes4"
            },
            {
              "internalType": "bytes",
              "name": "data",
              "type": "bytes"
            }
          ],
          "internalType": "struct LibOrder.Order",
          "name": "orderLeft",
          "type": "tuple"
        },
        {
          "internalType": "bytes",
          "name": "signatureLeft",
          "type": "bytes"
        },
        {
          "components": [
            {
              "internalType": "address",
              "name": "maker",
              "type": "address"
            },
            {
              "components": [
                {
                  "components": [
                    {
                      "internalType": "bytes4",
                      "name": "assetClass",
                      "type": "bytes4"
                    },
                    {
                      "internalType": "bytes",
                      "name": "data",
                      "type": "bytes"
                    }
                  ],
                  "internalType": "struct LibAsset.AssetType",
                  "name": "assetType",
                  "type": "tuple"
                },
                {
                  "internalType": "uint256",
                  "name": "value",
                  "type": "uint256"
                }
              ],
              "internalType": "struct LibAsset.Asset",
              "name": "makeAsset",
              "type": "tuple"
            },
            {
              "internalType": "address",
              "name": "taker",
              "type": "address"
            },
            {
              "components": [
                {
                  "components": [
                    {
                      "internalType": "bytes4",
                      "name": "assetClass",
                      "type": "bytes4"
                    },
                    {
                      "internalType": "bytes",
                      "name": "data",
                      "type": "bytes"
                    }
                  ],
                  "internalType": "struct LibAsset.AssetType",
                  "name": "assetType",
                  "type": "tuple"
                },
                {
                  "internalType": "uint256",
                  "name": "value",
                  "type": "uint256"
                }
              ],
              "internalType": "struct LibAsset.Asset",
              "name": "takeAsset",
              "type": "tuple"
            },
            {
              "internalType": "uint256",
              "name": "salt",
              "type": "uint256"
            },
            {
              "internalType": "uint256",
              "name": "start",
              "type": "uint256"
            },
            {
              "internalType": "uint256",
              "name": "end",
              "type": "uint256"
            },
            {
              "internalType": "bytes4",
              "name": "dataType",
              "type": "bytes4"
            },
            {
              "internalType": "bytes",
              "name": "data",
              "type": "bytes"
            }
          ],
          "internalType": "struct LibOrder.Order",
          "name": "orderRight",
          "type": "tuple"
        },
        {
          "internalType": "bytes",
          "name": "signatureRight",
          "type": "bytes"
        }
      ],
      "name": "matchOrders",
      "outputs": [],
      "stateMutability": "payable",
      "type": "function"
    },
    {
      "inputs": [],
      "name": "owner",
      "outputs": [
        {
          "internalType": "address",
          "name": "",
          "type": "address"
        }
      ],
      "stateMutability": "view",
      "type": "function"
    },
    {
      "inputs": [],
      "name": "renounceOwnership",
      "outputs": [],
      "stateMutability": "nonpayable",
      "type": "function"
    },
    {
      "inputs": [],
      "name": "royaltiesRegistry",
      "outputs": [
        {
          "internalType": "contract IRoyaltiesProvider",
          "name": "",
          "type": "address"
        }
      ],
      "stateMutability": "view",
      "type": "function"
    },
    {
      "inputs": [],
      "name": "sellerFee",
      "outputs": [
        {
          "internalType": "uint256",
          "name": "",
          "type": "uint256"
        }
      ],
      "stateMutability": "view",
      "type": "function"
    },
    {
      "inputs": [
        {
          "internalType": "bytes4",
          "name": "assetType",
          "type": "bytes4"
        },
        {
          "internalType": "address",
          "name": "matcher",
          "type": "address"
        }
      ],
      "name": "setAssetMatcher",
      "outputs": [],
      "stateMutability": "nonpayable",
      "type": "function"
    },
    {
      "inputs": [
        {
          "internalType": "uint256",
          "name": "newBuyerFee",
          "type": "uint256"
        }
      ],
      "name": "setBuyerFee",
      "outputs": [],
      "stateMutability": "nonpayable",
      "type": "function"
    },
    {
      "inputs": [
        {
          "internalType": "address payable",
          "name": "newCommunityWallet",
          "type": "address"
        }
      ],
      "name": "setCommunityWallet",
      "outputs": [],
      "stateMutability": "nonpayable",
      "type": "function"
    },
    {
      "inputs": [
        {
          "internalType": "uint256",
          "name": "newSellerFee",
          "type": "uint256"
        }
      ],
      "name": "setSellerFee",
      "outputs": [],
      "stateMutability": "nonpayable",
      "type": "function"
    },
    {
      "inputs": [
        {
          "internalType": "bytes4",
          "name": "assetType",
          "type": "bytes4"
        },
        {
          "internalType": "address",
          "name": "proxy",
          "type": "address"
        }
      ],
      "name": "setTransferProxy",
      "outputs": [],
      "stateMutability": "nonpayable",
      "type": "function"
    },
    {
      "inputs": [
        {
          "internalType": "address",
          "name": "token",
          "type": "address"
        },
        {
          "internalType": "address",
          "name": "wallet",
          "type": "address"
        }
      ],
      "name": "setWalletForToken",
      "outputs": [],
      "stateMutability": "nonpayable",
      "type": "function"
    },
    {
      "inputs": [
        {
          "internalType": "address",
          "name": "newOwner",
          "type": "address"
        }
      ],
      "name": "transferOwnership",
      "outputs": [],
      "stateMutability": "nonpayable",
      "type": "function"
    },
    {
      "inputs": [
        {
          "internalType": "address",
          "name": "",
          "type": "address"
        }
      ],
      "name": "walletsForTokens",
      "outputs": [
        {
          "internalType": "address",
          "name": "",
          "type": "address"
        }
      ],
      "stateMutability": "view",
      "type": "function"
    },
    {
      "inputs": [
        {
          "internalType": "contract TransferProxy",
          "name": "_transferProxy",
          "type": "address"
        },
        {
          "internalType": "contract ERC20TransferProxy",
          "name": "_erc20TransferProxy",
          "type": "address"
        },
        {
          "internalType": "uint256",
          "name": "newBuyerFee",
          "type": "uint256"
        },
        {
          "internalType": "uint256",
          "name": "newSellerFee",
          "type": "uint256"
        },
        {
          "internalType": "address",
          "name": "newCommunityWallet",
          "type": "address"
        },
        {
          "internalType": "contract IRoyaltiesProvider",
          "name": "newRoyaltiesProvider",
          "type": "address"
        }
      ],
      "name": "__ExchangeV2_init",
      "outputs": [],
      "stateMutability": "nonpayable",
      "type": "function"
    }
  ],
  "bytecode": "0x608060405234801561001057600080fd5b50613d04806100206000396000f3fe6080604052600436106101145760003560e01c80638da5cb5b116100a0578063e1f3d55a11610064578063e1f3d55a146102bc578063e2864fe3146102d1578063e99a3f80146102f1578063f2fde38b14610304578063fa7da19d1461032457610114565b80638da5cb5b146102325780639daa823d14610247578063b39deb4614610267578063c757483914610287578063d22ce6c61461029c57610114565b80635de6c42f116100e75780635de6c42f146101a65780636d8f0694146101bb578063715018a6146101dd57806376380cfe146101f257806385d6bb811461021257610114565b80631bfee1211461011957806320158c441461013b57806330c642f1146101715780633408e47014610191575b600080fd5b34801561012557600080fd5b506101396101343660046134de565b610344565b005b34801561014757600080fd5b5061015b6101563660046134de565b6103ac565b6040516101689190613863565b60405180910390f35b34801561017d57600080fd5b5061013961018c3660046134f6565b6103bf565b34801561019d57600080fd5b5061015b61048f565b3480156101b257600080fd5b5061015b610493565b3480156101c757600080fd5b506101d061049a565b6040516101689190613836565b3480156101e957600080fd5b506101396104aa565b3480156101fe57600080fd5b5061013961020d366004613513565b610556565b34801561021e57600080fd5b5061013961022d36600461340e565b61062c565b34801561023e57600080fd5b506101d06106c4565b34801561025357600080fd5b506101d061026236600461340e565b6106d3565b34801561027357600080fd5b506101396102823660046134f6565b6106ef565b34801561029357600080fd5b506101d06107b3565b3480156102a857600080fd5b506101396102b7366004613473565b6107c3565b3480156102c857600080fd5b5061015b61087a565b3480156102dd57600080fd5b506101396102ec3660046136e6565b610881565b6101396102ff366004613719565b610921565b34801561031057600080fd5b5061013961031f36600461340e565b6109dd565b34801561033057600080fd5b5061013961033f3660046134de565b610ae0565b61034c610b48565b6001600160a01b031661035d6106c4565b6001600160a01b0316146103a6576040805162461bcd60e51b81526020600482018190526024820152600080516020613caf833981519152604482015290519081900360640190fd5b61016255565b61012f6020526000908152604090205481565b6103c7610b48565b6001600160a01b03166103d86106c4565b6001600160a01b031614610421576040805162461bcd60e51b81526020600482018190526024820152600080516020613caf833981519152604482015290519081900360640190fd5b6001600160e01b031982166000818152609760205260409081902080546001600160a01b0319166001600160a01b038516179055517f4b5aced933c0c9a88aeac3f0b3b72c5aaf75df8ebaf53225773248c4c315359390610483908490613836565b60405180910390a25050565b4690565b6101615481565b610163546001600160a01b031681565b6104b2610b48565b6001600160a01b03166104c36106c4565b6001600160a01b03161461050c576040805162461bcd60e51b81526020600482018190526024820152600080516020613caf833981519152604482015290519081900360640190fd5b6033546040516000916001600160a01b0316907f8be0079c531659141344cd1fd0a4f28419497f9722a3daafe3b4186f6b6457e0908390a3603380546001600160a01b0319169055565b600054610100900460ff168061056f575061056f610b4c565b8061057d575060005460ff16155b6105b85760405162461bcd60e51b815260040180806020018281038252602e815260200180613c3e602e913960400191505060405180910390fd5b600054610100900460ff161580156105e3576000805460ff1961ff0019909116610100171660011790555b6105eb610b5d565b6105f3610bff565b6105fd8787610cf8565b61060985858585610da2565b610611610e86565b8015610623576000805461ff00191690555b50505050505050565b610634610b48565b6001600160a01b03166106456106c4565b6001600160a01b03161461068e576040805162461bcd60e51b81526020600482018190526024820152600080516020613caf833981519152604482015290519081900360640190fd5b6001600160a01b0381166106a157600080fd5b61016480546001600160a01b0319166001600160a01b0392909216919091179055565b6033546001600160a01b031690565b610165602052600090815260409020546001600160a01b031681565b6106f7610b48565b6001600160a01b03166107086106c4565b6001600160a01b031614610751576040805162461bcd60e51b81526020600482018190526024820152600080516020613caf833981519152604482015290519081900360640190fd5b6001600160e01b031982166000818152606560205260409081902080546001600160a01b0319166001600160a01b038516179055517fd2bf91075f105d0fd80328da28e20ebdad1c1261839711183bc29a44cbe6c72f90610483908490613836565b610164546001600160a01b031681565b6107cb610b48565b6001600160a01b03166107dc6106c4565b6001600160a01b031614610825576040805162461bcd60e51b81526020600482018190526024820152600080516020613caf833981519152604482015290519081900360640190fd5b6001600160a01b03821661083857600080fd5b6001600160a01b03811661084b57600080fd5b6001600160a01b0391821660009081526101656020526040902080546001600160a01b03191691909216179055565b6101625481565b80516001600160a01b0316610894610b48565b6001600160a01b0316146108c35760405162461bcd60e51b81526004016108ba90613a90565b60405180910390fd5b60006108ce82610f56565b600081815261012f6020526040908190206000199055519091507fe8d9861dbc9c663ed3accd261bbe2fe01e0d3d9e5f51fa38523b265c7757a93a90610915908390613863565b60405180910390a15050565b61092b8484610fcb565b6109358282610fcb565b60408401516001600160a01b0316156109815783604001516001600160a01b031682600001516001600160a01b0316146109815760405162461bcd60e51b81526004016108ba90613957565b60408201516001600160a01b0316156109cd5783600001516001600160a01b031682604001516001600160a01b0316146109cd5760405162461bcd60e51b81526004016108ba90613957565b6109d78483610fe2565b50505050565b6109e5610b48565b6001600160a01b03166109f66106c4565b6001600160a01b031614610a3f576040805162461bcd60e51b81526020600482018190526024820152600080516020613caf833981519152604482015290519081900360640190fd5b6001600160a01b038116610a845760405162461bcd60e51b8152600401808060200182810382526026815260200180613bf66026913960400191505060405180910390fd5b6033546040516001600160a01b038084169216907f8be0079c531659141344cd1fd0a4f28419497f9722a3daafe3b4186f6b6457e090600090a3603380546001600160a01b0319166001600160a01b0392909216919091179055565b610ae8610b48565b6001600160a01b0316610af96106c4565b6001600160a01b031614610b42576040805162461bcd60e51b81526020600482018190526024820152600080516020613caf833981519152604482015290519081900360640190fd5b61016155565b3390565b6000610b5730611204565b15905090565b600054610100900460ff1680610b765750610b76610b4c565b80610b84575060005460ff16155b610bbf5760405162461bcd60e51b815260040180806020018281038252602e815260200180613c3e602e913960400191505060405180910390fd5b600054610100900460ff16158015610bea576000805460ff1961ff0019909116610100171660011790555b8015610bfc576000805461ff00191690555b50565b600054610100900460ff1680610c185750610c18610b4c565b80610c26575060005460ff16155b610c615760405162461bcd60e51b815260040180806020018281038252602e815260200180613c3e602e913960400191505060405180910390fd5b600054610100900460ff16158015610c8c576000805460ff1961ff0019909116610100171660011790555b6000610c96610b48565b603380546001600160a01b0319166001600160a01b038316908117909155604051919250906000907f8be0079c531659141344cd1fd0a4f28419497f9722a3daafe3b4186f6b6457e0908290a3508015610bfc576000805461ff001916905550565b60976020527f4532fa16f071d6234e30e1a1e69b9806f04095edf37a1ca7a25c8d6af7861cc080546001600160a01b039283166001600160a01b0319918216179091557f30a684095c937b5aa064dcf94f9903a7d808e3efb22d8389dbd43080ad4ed3d5805493909216928116831790915563025ceed960e61b6000527f4b5822151ea34b7c8d9e37c3e466bcecb631efe6a9f26a4a4054110a93dd316f80549091169091179055565b600054610100900460ff1680610dbb5750610dbb610b4c565b80610dc9575060005460ff16155b610e045760405162461bcd60e51b815260040180806020018281038252602e815260200180613c3e602e913960400191505060405180910390fd5b600054610100900460ff16158015610e2f576000805460ff1961ff0019909116610100171660011790555b61016185905561016284905561016480546001600160a01b038086166001600160a01b0319928316179092556101638054928516929091169190911790558015610e7f576000805461ff00191690555b5050505050565b600054610100900460ff1680610e9f5750610e9f610b4c565b80610ead575060005460ff16155b610ee85760405162461bcd60e51b815260040180806020018281038252602e815260200180613c3e602e913960400191505060405180910390fd5b600054610100900460ff16158015610f13576000805460ff1961ff0019909116610100171660011790555b610bea6040518060400160405280600881526020016745786368616e676560c01b815250604051806040016040528060018152602001601960f91b81525061120a565b805160208201515160009190610f6b906112cb565b606084015151610f7a906112cb565b846080015160405160200180856001600160a01b031681526020018481526020018381526020018281526020019450505050506040516020818303038152906040528051906020012090505b919050565b610fd482611335565b610fde82826113ff565b5050565b600080610fef848461160e565b915091506000610ffe85610f56565b9050600061100b85610f56565b600083815261012f602052604080822054838352908220549293509190611034898985856116a7565b9050600081602001511161105a5760405162461bcd60e51b81526004016108ba9061398e565b60008061106a8989858e8e611737565b8a5191935091506001600160e01b0319166355575f5d60e11b14156110ca57813410156110a95760405162461bcd60e51b81526004016108ba90613a43565b813411156110c5576110c56110be348461188c565b33906118ee565b611119565b87516001600160e01b0319166355575f5d60e11b141561111957803410156111045760405162461bcd60e51b81526004016108ba90613a43565b80341115611119576111196110be348361188c565b6000611123610b48565b90508b600001516001600160a01b0316816001600160a01b031614611163576020840151611152908790611986565b600089815261012f60205260409020555b8a516001600160a01b03828116911614611195578351611184908690611986565b600088815261012f60205260409020555b8a600001516001600160a01b03168c600001516001600160a01b03167f6bd3176da6f0aab285937ad5ead5f53b9036f403cfad62f77e4e0f80b5a7e18d8a8a886020015189600001516040516111ee949392919061386c565b60405180910390a3505050505050505050505050565b3b151590565b600054610100900460ff16806112235750611223610b4c565b80611231575060005460ff16155b61126c5760405162461bcd60e51b815260040180806020018281038252602e815260200180613c3e602e913960400191505060405180910390fd5b600054610100900460ff16158015611297576000805460ff1961ff0019909116610100171660011790555b825160208085019190912083519184019190912060c99190915560ca5580156112c6576000805461ff00191690555b505050565b8051602091820151805190830120604080517f452a0dc408cb0d27ffc3b3caff933a5208040a53a9dbecd8d89cad2c0d40e00c818601526001600160e01b031990931683820152606080840192909252805180840390920182526080909201909152805191012090565b60a081015115806113495750428160a00151105b61139a576040805162461bcd60e51b815260206004820152601d60248201527f4f726465722073746172742076616c69646174696f6e206661696c6564000000604482015290519081900360640190fd5b60c081015115806113ae5750428160c00151115b610bfc576040805162461bcd60e51b815260206004820152601b60248201527f4f7264657220656e642076616c69646174696f6e206661696c65640000000000604482015290519081900360640190fd5b81516001600160a01b0316611412610b48565b6001600160a01b031614610fde57600061142b836119e7565b905061144383600001516001600160a01b0316611204565b15611595578251630b135d3f60e11b906001600160a01b0316631626ba7e61146a84611ad7565b856040518363ffffffff1660e01b81526004018083815260200180602001828103825283818151815260200191508051906020019080838360005b838110156114bd5781810151838201526020016114a5565b50505050905090810190601f1680156114ea5780820380516001836020036101000a031916815260200191505b50935050505060206040518083038186803b15801561150857600080fd5b505afa15801561151c573d6000803e3d6000fd5b505050506040513d602081101561153257600080fd5b50516001600160e01b03191614611590576040805162461bcd60e51b815260206004820152601c60248201527f7369676e617475726520766572696669636174696f6e206572726f7200000000604482015290519081900360640190fd5b6112c6565b82516001600160a01b03166115b3836115ad84611ad7565b90611b23565b6001600160a01b0316146112c6576040805162461bcd60e51b815260206004820152601c60248201527f7369676e617475726520766572696669636174696f6e206572726f7200000000604482015290519081900360640190fd5b6116166130df565b61161e6130df565b6020840151516060840151516116349190611ba3565b80519092506001600160e01b03191661165f5760405162461bcd60e51b81526004016108ba906139ee565b6060840151516020840151516116759190611ba3565b80519091506001600160e01b0319166116a05760405162461bcd60e51b81526004016108ba906139ee565b9250929050565b6116af6130f7565b6000806116bc8786611be3565b915091506000806116cd8887611be3565b9150915081831115611700576116f58960200151602001518a60600151602001518484611c27565b94505050505061172f565b83811115611724576116f584848a60200151602001518b6060015160200151611cad565b6116f5848483611d32565b949350505050565b600080600061174e88600001518860000151611da6565b8651602088015190945092509050600061176786611e77565b9050600061177486611e77565b9050600183600281111561178457fe5b14156117fd57875187516117bd919084848e8e7f1a0388dd7519a093630516a672419a2562e0e74deb98af068657dc265f0164c9611f38565b94506117f8898960200151886000015185600001517fb45a3ba14423c8f1b71cc094845ab56b5294dbe8d8e3ba53f3cdb63d59a4044b611fa0565b61187f565b600283600281111561180b57fe5b141561187f576118488860200151876000015183858d8f7fb45a3ba14423c8f1b71cc094845ab56b5294dbe8d8e3ba53f3cdb63d59a4044b611f38565b88518851835192965061187f928d9291907f1a0388dd7519a093630516a672419a2562e0e74deb98af068657dc265f0164c9611fa0565b5050509550959350505050565b6000828211156118e3576040805162461bcd60e51b815260206004820152601e60248201527f536166654d6174683a207375627472616374696f6e206f766572666c6f770000604482015290519081900360640190fd5b508082035b92915050565b6040516000906001600160a01b0384169083908381818185875af1925050503d8060008114611939576040519150601f19603f3d011682016040523d82523d6000602084013e61193e565b606091505b50509050806112c6576040805162461bcd60e51b815260206004820152600f60248201526e1d1c985b9cd9995c8819985a5b1959608a1b604482015290519081900360640190fd5b6000828201838110156119e0576040805162461bcd60e51b815260206004820152601b60248201527f536166654d6174683a206164646974696f6e206f766572666c6f770000000000604482015290519081900360640190fd5b9392505050565b60007f477ed43b8020849b755512278536c3766a3b4ab547519949a75f483372493f8d8260000151611a1c84602001516120cb565b8460400151611a2e86606001516120cb565b86608001518760a001518860c001518960e001518a610100015180519060200120604051602001808b81526020018a6001600160a01b03168152602001898152602001886001600160a01b03168152602001878152602001868152602001858152602001848152602001836001600160e01b03191681526020018281526020019a5050505050505050505050604051602081830303815290604052805190602001209050919050565b6000611ae161213b565b82604051602001808061190160f01b81525060020183815260200182815260200192505050604051602081830303815290604052805190602001209050919050565b60008151604114611b7b576040805162461bcd60e51b815260206004820152601f60248201527f45434453413a20696e76616c6964207369676e6174757265206c656e67746800604482015290519081900360640190fd5b60208201516040830151606084015160001a611b998682858561217b565b9695505050505050565b611bab6130df565b6000611bb784846122f9565b80519091506001600160e01b031916611bdc57611bd483856122f9565b9150506118e8565b90506118e8565b600080611c018385606001516020015161188c90919063ffffffff16565b9050611c1e8460200151602001518560600151602001518361265a565b91509250929050565b611c2f6130f7565b6000611c3c83878761265a565b905083811115611c93576040805162461bcd60e51b815260206004820152601960248201527f66696c6c52696768743a20756e61626c6520746f2066696c6c00000000000000604482015290519081900360640190fd5b604080518082019091529283526020830152509392505050565b611cb56130f7565b6000611cc285858561265a565b905085811115611d19576040805162461bcd60e51b815260206004820152601860248201527f66696c6c4c6566743a20756e61626c6520746f2066696c6c0000000000000000604482015290519081900360640190fd5b5050604080518082019091529384525050602082015290565b611d3a6130f7565b83821115611d8f576040805162461bcd60e51b815260206004820152601860248201527f66696c6c426f74683a20756e61626c6520746f2066696c6c0000000000000000604482015290519081900360640190fd5b505060408051808201909152918252602082015290565b60006001600160e01b031983166355575f5d60e11b1415611dc9575060016118e8565b6001600160e01b031982166355575f5d60e11b1415611dea575060026118e8565b6001600160e01b031983166322ba176160e21b1415611e0b575060016118e8565b6001600160e01b031982166322ba176160e21b1415611e2c575060026118e8565b6001600160e01b0319831663025ceed960e61b1415611e4d575060016118e8565b6001600160e01b0319821663025ceed960e61b1415611e6e575060026118e8565b50600092915050565b611e7f613111565b60e08201516001600160e01b031916632611a13360e11b1415611ec857611eaa8261010001516126be565b805151909150611ec3578151611ec090826126da565b90505b610fc6565b60e08201516001600160e01b03199081161415611eeb578151611ec090826126da565b6040805162461bcd60e51b815260206004820152601760248201527f556e6b6e6f776e204f7264657220646174612074797065000000000000000000604482015290519081900360640190fd5b600080611f48898a8a888761277b565b9050611f588585838c8c88612860565b9050611f6c85828b8a602001518c88612a07565b9050611f8085828b89602001518c88612a07565b9050611f9385828a896000015187611fa0565b5096979650505050505050565b600080835111611fc25760405162461bcd60e51b81526004016108ba90613a6b565b60005b83518110156120a1576000612003858381518110611fdf57fe5b6020026020010151602001516001600160601b031688612a9890919063ffffffff16565b905061203885838151811061201457fe5b6020026020010151602001516001600160601b03168461198690919063ffffffff16565b925080156120985761209860405180604001604052808a8152602001838152508787858151811061206557fe5b602002602001015160000151877fa10bb5b2060a412d05113732875a5431ca23453eb93f797e0ffcb5b40e5f2c3e612aaa565b50600101611fc5565b5080612710146120c35760405162461bcd60e51b81526004016108ba906139b7565b505050505050565b60007fdb6f72e915676cfc289da13bc4ece054fd17b1df6d77ffc4a60510718c236b086120fb83600001516112cb565b8360200151604051602001808481526020018381526020018281526020019350505050604051602081830303815290604052805190602001209050919050565b60006121767f8b73c3c69bb8fe3d512ecc4cf759cc79239f7b179b0ffacaa9a75d522b39400f612169612e99565b612171612e9f565b612ea5565b905090565b60007f7fffffffffffffffffffffffffffffff5d576e7357a4501ddfe92f46681b20a08211156121dc5760405162461bcd60e51b8152600401808060200182810382526022815260200180613c1c6022913960400191505060405180910390fd5b8360ff16601b14806121f157508360ff16601c145b61222c5760405162461bcd60e51b8152600401808060200182810382526022815260200180613c6c6022913960400191505060405180910390fd5b600060018686868660405160008152602001604052604051808581526020018460ff1681526020018381526020018281526020019450505050506020604051602081039080840390855afa158015612288573d6000803e3d6000fd5b5050604051601f1901519150506001600160a01b0381166122f0576040805162461bcd60e51b815260206004820152601860248201527f45434453413a20696e76616c6964207369676e61747572650000000000000000604482015290519081900360640190fd5b95945050505050565b6123016130df565b825182516001600160e01b031982166355575f5d60e11b141561236c576001600160e01b031981166355575f5d60e11b14156123415784925050506118e8565b50506040805180820182526000808252825160208181019094529081529181019190915290506118e8565b6001600160e01b031982166322ba176160e21b1415612429576001600160e01b031981166322ba176160e21b141561234157600085602001518060200190518101906123b8919061342a565b9050600085602001518060200190518101906123d4919061342a565b9050806001600160a01b0316826001600160a01b031614156123fc57869450505050506118e8565b505050506040805180820182526000808252825160208181019094529081529181019190915290506118e8565b6001600160e01b031982166339d690a360e11b14156124fb576001600160e01b031981166339d690a360e11b14156123415760008086602001518060200190518101906124769190613446565b9150915060008087602001518060200190518101906124959190613446565b91509150816001600160a01b0316846001600160a01b03161480156124b957508083145b156124cc578896505050505050506118e8565b5050505050506040805180820182526000808252825160208181019094529081529181019190915290506118e8565b6001600160e01b0319821663025ceed960e61b1415612548576001600160e01b0319811663025ceed960e61b14156123415760008086602001518060200190518101906124769190613446565b6001600160e01b031982166000908152606560205260409020546001600160a01b031680156125fd576040516306d3f7cb60e41b81526001600160a01b03821690636d3f7cb09061259f9089908990600401613ab5565b60006040518083038186803b1580156125b757600080fd5b505afa1580156125cb573d6000803e3d6000fd5b505050506040513d6000823e601f3d908101601f191682016040526125f39190810190613582565b93505050506118e8565b6001600160e01b03198381169083161415612642576020808701518051908201208682015180519201919091208082141561263f5787955050505050506118e8565b50505b60405162461bcd60e51b81526004016108ba906138f4565b6000612667848484612f07565b156126aa576040805162461bcd60e51b815260206004820152600e60248201526d3937bab73234b7339032b93937b960911b604482015290519081900360640190fd5b61172f836126b88685612f96565b90612fef565b6126c6613111565b818060200190518101906118e8919061364a565b6126e2613111565b604080516001808252818301909252600091816020015b61270161312b565b8152602001906001900390816126f9579050509050838160008151811061272457fe5b6020026020010151600001906001600160a01b031690816001600160a01b0316815250506127108160008151811061275857fe5b6020908102919091018101516001600160601b0392909216910152825250919050565b600080600061278e888861016154613056565b909250905080156128555784516000906001600160e01b0319166322ba176160e21b14156127d15785602001518060200190518101906127ce919061342a565b90505b85516001600160e01b03191663025ceed960e61b141561280a57600086602001518060200190518101906128059190613446565b509150505b6128536040518060400160405280888152602001848152508861282c84613078565b887ff87e69cb514f255f3d32f9d90f25160a10d0cdefe6618a6406db334d4450595c612aaa565b505b509695505050505050565b845184906001600160e01b03191663025ceed960e61b14801590612896575085516001600160e01b0319166339d690a360e11b14155b156128a057611b99565b60008087602001518060200190518101906128bb9190613446565b61016354604051634e53ee3d60e11b81529294509092506000916001600160a01b0390911690639ca7dc7a906128f7908690869060040161384a565b600060405180830381600087803b15801561291157600080fd5b505af1158015612925573d6000803e3d6000fd5b505050506040513d6000823e601f3d908101601f1916820160405261294d91908101906134ab565b905060005b81518110156129f957600080612989878b86868151811061296f57fe5b6020026020010151602001516001600160601b0316613056565b909750879250905080156129ef576129ef60405180604001604052808f8152602001838152508a8686815181106129bc57fe5b6020026020010151600001518b7fb3c5c697ec0b511b76d12f6293e6ee827b1e1df79ac7c64d0466d945904893d7612aaa565b5050600101612952565b505050509695505050505050565b8460005b845181101561285557600080612a28848989868151811061296f57fe5b90945084925090508015612a8e57612a8e60405180604001604052808c81526020018381525087898681518110612a5b57fe5b602002602001015160000151887fdfdfdaf4cc275341b6776a7ee23b953990b8d991717449077287da70f32cf955612aaa565b5050600101612a0b565b60006119e06127106126b88585612f96565b8451516001600160e01b0319166355575f5d60e11b1415612b4b576000836001600160a01b03168660200151604051612ae290613833565b60006040518083038185875af1925050503d8060008114612b1f576040519150601f19603f3d011682016040523d82523d6000602084013e612b24565b606091505b5050905080612b455760405162461bcd60e51b81526004016108ba90613a1a565b50612e53565b8451516001600160e01b0319166322ba176160e21b1415612c29576000856000015160200151806020019051810190612b84919061342a565b6322ba176160e21b600052609760209081527f4532fa16f071d6234e30e1a1e69b9806f04095edf37a1ca7a25c8d6af7861cc0549088015160405163776062c360e01b81529293506001600160a01b039091169163776062c391612bf19185918a918a91906004016138ca565b600060405180830381600087803b158015612c0b57600080fd5b505af1158015612c1f573d6000803e3d6000fd5b5050505050612e53565b8451516001600160e01b0319166339d690a360e11b1415612d2957600080866000015160200151806020019051810190612c639190613446565b915091508660200151600114612c8b5760405162461bcd60e51b81526004016108ba9061392b565b6339d690a360e11b60005260976020527f30a684095c937b5aa064dcf94f9903a7d808e3efb22d8389dbd43080ad4ed3d554604051637b84dc8360e11b81526001600160a01b039091169063f709b90690612cf09085908a908a9087906004016138ca565b600060405180830381600087803b158015612d0a57600080fd5b505af1158015612d1e573d6000803e3d6000fd5b505050505050612e53565b8451516001600160e01b03191663025ceed960e61b1415612dd257600080866000015160200151806020019051810190612d639190613446565b63025ceed960e61b600052609760209081527f4b5822151ea34b7c8d9e37c3e466bcecb631efe6a9f26a4a4054110a93dd316f54908a0151604051639c1c2ee960e01b81529395509193506001600160a01b031691639c1c2ee991612cf09186918b918b918891600401613887565b8451516001600160e01b031916600090815260976020526040908190205490516354bc0cf160e01b81526001600160a01b03909116906354bc0cf190612e2090889088908890600401613ada565b600060405180830381600087803b158015612e3a57600080fd5b505af1158015612e4e573d6000803e3d6000fd5b505050505b7fcae9d16f553e92058883de29cb3135dbc0c1e31fd7eace79fef1d80577fe482e8585858585604051612e8a959493929190613b0d565b60405180910390a15050505050565b60c95490565b60ca5490565b6000838383612eb261048f565b3060405160200180868152602001858152602001848152602001838152602001826001600160a01b03168152602001955050505050506040516020818303038152906040528051906020012090509392505050565b600082612f4e576040805162461bcd60e51b815260206004820152601060248201526f6469766973696f6e206279207a65726f60801b604482015290519081900360640190fd5b811580612f59575083155b15612f66575060006119e0565b60008380612f7057fe5b8584099050612f7f8584612f96565b612f8b826103e8612f96565b101595945050505050565b600082612fa5575060006118e8565b82820282848281612fb257fe5b04146119e05760405162461bcd60e51b8152600401808060200182810382526021815260200180613c8e6021913960400191505060405180910390fd5b6000808211613045576040805162461bcd60e51b815260206004820152601a60248201527f536166654d6174683a206469766973696f6e206279207a65726f000000000000604482015290519081900360640190fd5b81838161304e57fe5b049392505050565b60008061306c856130678686612a98565b6130b7565b91509150935093915050565b6001600160a01b038082166000908152610165602052604081205490911680156130a3579050610fc6565b5050610164546001600160a01b0316919050565b600080828411156130d6576130cc848461188c565b91508290506116a0565b50600093915050565b60408051808201909152600081526060602082015290565b604051806040016040528060008152602001600081525090565b604051806040016040528060608152602001606081525090565b604080518082019091526000808252602082015290565b8035610fc681613bca565b600082601f83011261315d578081fd5b8151602067ffffffffffffffff8083111561317457fe5b6131818283850201613b58565b838152828101908684016040808702890186018a101561319f578788fd5b875b878110156132075781838c0312156131b7578889fd5b815182810181811088821117156131ca57fe5b835283516131d781613bca565b8152838801516001600160601b03811681146131f1578a8bfd5b81890152855293860193918101916001016131a1565b50919998505050505050505050565b8035610fc681613bdf565b600082601f830112613231578081fd5b813561324461323f82613b7c565b613b58565b818152846020838601011115613258578283fd5b816020850160208301379081016020019190915292915050565b60006040808385031215613284578182fd5b805181810167ffffffffffffffff82821081831117156132a057fe5b8184528294508535818111156132b557600080fd5b86018088038513156132c657600080fd5b6080840183811083821117156132d857fe5b9094528335936132e785613bdf565b938252602084013593818511156132fd57600080fd5b61330988868301613221565b60608501525050815260209384013593019290925292915050565b6000610120808385031215613337578182fd5b61334081613b58565b91505061334c82613142565b8152602082013567ffffffffffffffff8082111561336957600080fd5b61337585838601613272565b602084015261338660408501613142565b6040840152606084013591508082111561339f57600080fd5b6133ab85838601613272565b60608401526080840135608084015260a084013560a084015260c084013560c08401526133da60e08501613216565b60e0840152610100915081840135818111156133f557600080fd5b61340186828701613221565b8385015250505092915050565b60006020828403121561341f578081fd5b81356119e081613bca565b60006020828403121561343b578081fd5b81516119e081613bca565b60008060408385031215613458578081fd5b825161346381613bca565b6020939093015192949293505050565b60008060408385031215613485578182fd5b823561349081613bca565b915060208301356134a081613bca565b809150509250929050565b6000602082840312156134bc578081fd5b815167ffffffffffffffff8111156134d2578182fd5b61172f8482850161314d565b6000602082840312156134ef578081fd5b5035919050565b60008060408385031215613508578182fd5b823561349081613bdf565b60008060008060008060c0878903121561352b578182fd5b863561353681613bca565b9550602087013561354681613bca565b94506040870135935060608701359250608087013561356481613bca565b915060a087013561357481613bca565b809150509295509295509295565b60006020808385031215613594578182fd5b825167ffffffffffffffff808211156135ab578384fd5b90840190604082870312156135be578384fd5b6040516040810181811083821117156135d357fe5b60405282516135e181613bdf565b815282840151828111156135f3578586fd5b80840193505086601f840112613607578485fd5b8251915061361761323f83613b7c565b828152878584860101111561362a578586fd5b61363983868301878701613b9e565b938101939093525090949350505050565b60006020828403121561365b578081fd5b815167ffffffffffffffff80821115613672578283fd5b9083019060408286031215613685578283fd5b60405160408101818110838211171561369a57fe5b6040528251828111156136ab578485fd5b6136b78782860161314d565b8252506020830151828111156136cb578485fd5b6136d78782860161314d565b60208301525095945050505050565b6000602082840312156136f7578081fd5b813567ffffffffffffffff81111561370d578182fd5b61172f84828501613324565b6000806000806080858703121561372e578182fd5b843567ffffffffffffffff80821115613745578384fd5b61375188838901613324565b95506020870135915080821115613766578384fd5b61377288838901613221565b94506040870135915080821115613787578384fd5b61379388838901613324565b935060608701359150808211156137a8578283fd5b506137b587828801613221565b91505092959194509250565b600063ffffffff60e01b825116835260208201516040602085015280518060408601526137f5816060870160208501613b9e565b601f01601f1916939093016060019392505050565b600081516040845261381f60408501826137c1565b602093840151949093019390935250919050565b90565b6001600160a01b0391909116815260200190565b6001600160a01b03929092168252602082015260400190565b90815260200190565b93845260208401929092526040830152606082015260800190565b6001600160a01b03958616815293851660208501529190931660408301526060820192909252608081019190915260c060a0820181905260009082015260e00190565b6001600160a01b039485168152928416602084015292166040820152606081019190915260800190565b60208082526017908201527f6e6f7420666f756e64204941737365744d617463686572000000000000000000604082015260600190565b60208082526012908201527132b9319b9918903b30b63ab29032b93937b960711b604082015260600190565b60208082526019908201527f74616b657220766572696669636174696f6e206661696c656400000000000000604082015260600190565b6020808252600f908201526e1b9bdd1a1a5b99c81d1bc8199a5b1b608a1b604082015260600190565b6020808252601e908201527f53756d207061796f75747320427073206e6f7420657175616c20313030250000604082015260600190565b6020808252601290820152710c2e6e6cae8e640c8dedc4ee840dac2e8c6d60731b604082015260600190565b6020808252600f908201526e1d1c985b9cd9995c8819985a5b1959608a1b604082015260600190565b6020808252600e908201526d0dcdee840cadcdeeaced040cae8d60931b604082015260600190565b6020808252600b908201526a494e56414c49445f41524760a81b604082015260600190565b6020808252600b908201526a3737ba10309036b0b5b2b960a91b604082015260600190565b600060408252613ac860408301856137c1565b82810360208401526122f081856137c1565b600060608252613aed606083018661380a565b6001600160a01b0394851660208401529290931660409091015292915050565b600060a08252613b2060a083018861380a565b6001600160a01b0396871660208401529490951660408201526001600160e01b03199283166060820152911660809091015292915050565b60405181810167ffffffffffffffff81118282101715613b7457fe5b604052919050565b600067ffffffffffffffff821115613b9057fe5b50601f01601f191660200190565b60005b83811015613bb9578181015183820152602001613ba1565b838111156109d75750506000910152565b6001600160a01b0381168114610bfc57600080fd5b6001600160e01b031981168114610bfc57600080fdfe4f776e61626c653a206e6577206f776e657220697320746865207a65726f206164647265737345434453413a20696e76616c6964207369676e6174757265202773272076616c7565496e697469616c697a61626c653a20636f6e747261637420697320616c726561647920696e697469616c697a656445434453413a20696e76616c6964207369676e6174757265202776272076616c7565536166654d6174683a206d756c7469706c69636174696f6e206f766572666c6f774f776e61626c653a2063616c6c6572206973206e6f7420746865206f776e6572a264697066735822122009fab92d2a25f9a4486e5e4470aac755e78555cc9791cefa5d29638b51bc63b464736f6c63430007060033",
  "immutableReferences": {},
  "source": "// SPDX-License-Identifier: MIT\n\npragma solidity >=0.6.2 <0.8.0;\npragma abicoder v2;\n\nimport \"./ExchangeV2Core.sol\";\nimport \"./RaribleTransferManager.sol\";\nimport \"./IRoyaltiesProvider.sol\";\n\ncontract ExchangeV2 is ExchangeV2Core, RaribleTransferManager {\n    function __ExchangeV2_init(\n        TransferProxy _transferProxy,\n        ERC20TransferProxy _erc20TransferProxy,\n        uint newBuyerFee,\n        uint newSellerFee,\n        address newCommunityWallet,\n        IRoyaltiesProvider newRoyaltiesProvider\n    ) external initializer {\n        __Context_init_unchained();\n        __Ownable_init_unchained();\n        __TransferExecutor_init_unchained(_transferProxy, _erc20TransferProxy);\n        __RaribleTransferManager_init_unchained(newBuyerFee, newSellerFee, newCommunityWallet, newRoyaltiesProvider);\n        __OrderValidator_init_unchained();\n    }\n}\n",
  "sourcePath": "F:/Development/ideasoft/dArtFlex/protocol-contracts/exchange-v2/contracts/exchange/v2/ExchangeV2.sol",
  "compiler": {
    "name": "solc",
    "version": "0.7.6+commit.7338295f.Emscripten.clang"
  },
  "schemaVersion": "3.4.1",
  "updatedAt": "2021-09-22T02:20:51.051Z",
  "devdoc": {
    "kind": "dev",
    "methods": {
      "owner()": {
        "details": "Returns the address of the current owner."
      },
      "renounceOwnership()": {
        "details": "Leaves the contract without owner. It will not be possible to call `onlyOwner` functions anymore. Can only be called by the current owner. NOTE: Renouncing ownership will leave the contract without an owner, thereby removing any functionality that is only available to the owner."
      },
      "transferOwnership(address)": {
        "details": "Transfers ownership of the contract to a new account (`newOwner`). Can only be called by the current owner."
      }
    },
    "version": 1
  },
  "userdoc": {
    "kind": "user",
    "methods": {},
    "version": 1
  }
}