{
  "contractName": "ExchangeSimpleV2",
  "abi": [
    {
      "anonymous": false,
      "inputs": [
        {
          "indexed": false,
          "internalType": "bytes32",
          "name": "hash",
          "type": "bytes32"
        }
      ],
      "name": "Cancel",
      "type": "event"
    },
    {
      "anonymous": false,
      "inputs": [
        {
          "indexed": false,
          "internalType": "bytes32",
          "name": "leftHash",
          "type": "bytes32"
        },
        {
          "indexed": false,
          "internalType": "bytes32",
          "name": "rightHash",
          "type": "bytes32"
        },
        {
          "indexed": true,
          "internalType": "address",
          "name": "leftMaker",
          "type": "address"
        },
        {
          "indexed": true,
          "internalType": "address",
          "name": "rightMaker",
          "type": "address"
        },
        {
          "indexed": false,
          "internalType": "uint256",
          "name": "newLeftFill",
          "type": "uint256"
        },
        {
          "indexed": false,
          "internalType": "uint256",
          "name": "newRightFill",
          "type": "uint256"
        }
      ],
      "name": "Match",
      "type": "event"
    },
    {
      "anonymous": false,
      "inputs": [
        {
          "indexed": true,
          "internalType": "bytes4",
          "name": "assetType",
          "type": "bytes4"
        },
        {
          "indexed": false,
          "internalType": "address",
          "name": "matcher",
          "type": "address"
        }
      ],
      "name": "MatcherChange",
      "type": "event"
    },
    {
      "anonymous": false,
      "inputs": [
        {
          "indexed": true,
          "internalType": "address",
          "name": "previousOwner",
          "type": "address"
        },
        {
          "indexed": true,
          "internalType": "address",
          "name": "newOwner",
          "type": "address"
        }
      ],
      "name": "OwnershipTransferred",
      "type": "event"
    },
    {
      "anonymous": false,
      "inputs": [
        {
          "indexed": true,
          "internalType": "bytes4",
          "name": "assetType",
          "type": "bytes4"
        },
        {
          "indexed": false,
          "internalType": "address",
          "name": "proxy",
          "type": "address"
        }
      ],
      "name": "ProxyChange",
      "type": "event"
    },
    {
      "anonymous": false,
      "inputs": [
        {
          "components": [
            {
              "components": [
                {
                  "internalType": "bytes4",
                  "name": "assetClass",
                  "type": "bytes4"
                },
                {
                  "internalType": "bytes",
                  "name": "data",
                  "type": "bytes"
                }
              ],
              "internalType": "struct LibAsset.AssetType",
              "name": "assetType",
              "type": "tuple"
            },
            {
              "internalType": "uint256",
              "name": "value",
              "type": "uint256"
            }
          ],
          "indexed": false,
          "internalType": "struct LibAsset.Asset",
          "name": "asset",
          "type": "tuple"
        },
        {
          "indexed": false,
          "internalType": "address",
          "name": "from",
          "type": "address"
        },
        {
          "indexed": false,
          "internalType": "address",
          "name": "to",
          "type": "address"
        },
        {
          "indexed": false,
          "internalType": "bytes4",
          "name": "transferDirection",
          "type": "bytes4"
        },
        {
          "indexed": false,
          "internalType": "bytes4",
          "name": "transferType",
          "type": "bytes4"
        }
      ],
      "name": "Transfer",
      "type": "event"
    },
    {
      "inputs": [
        {
          "components": [
            {
              "internalType": "address",
              "name": "maker",
              "type": "address"
            },
            {
              "components": [
                {
                  "components": [
                    {
                      "internalType": "bytes4",
                      "name": "assetClass",
                      "type": "bytes4"
                    },
                    {
                      "internalType": "bytes",
                      "name": "data",
                      "type": "bytes"
                    }
                  ],
                  "internalType": "struct LibAsset.AssetType",
                  "name": "assetType",
                  "type": "tuple"
                },
                {
                  "internalType": "uint256",
                  "name": "value",
                  "type": "uint256"
                }
              ],
              "internalType": "struct LibAsset.Asset",
              "name": "makeAsset",
              "type": "tuple"
            },
            {
              "internalType": "address",
              "name": "taker",
              "type": "address"
            },
            {
              "components": [
                {
                  "components": [
                    {
                      "internalType": "bytes4",
                      "name": "assetClass",
                      "type": "bytes4"
                    },
                    {
                      "internalType": "bytes",
                      "name": "data",
                      "type": "bytes"
                    }
                  ],
                  "internalType": "struct LibAsset.AssetType",
                  "name": "assetType",
                  "type": "tuple"
                },
                {
                  "internalType": "uint256",
                  "name": "value",
                  "type": "uint256"
                }
              ],
              "internalType": "struct LibAsset.Asset",
              "name": "takeAsset",
              "type": "tuple"
            },
            {
              "internalType": "uint256",
              "name": "salt",
              "type": "uint256"
            },
            {
              "internalType": "uint256",
              "name": "start",
              "type": "uint256"
            },
            {
              "internalType": "uint256",
              "name": "end",
              "type": "uint256"
            },
            {
              "internalType": "bytes4",
              "name": "dataType",
              "type": "bytes4"
            },
            {
              "internalType": "bytes",
              "name": "data",
              "type": "bytes"
            }
          ],
          "internalType": "struct LibOrder.Order",
          "name": "order",
          "type": "tuple"
        }
      ],
      "name": "cancel",
      "outputs": [],
      "stateMutability": "nonpayable",
      "type": "function"
    },
    {
      "inputs": [
        {
          "internalType": "bytes32",
          "name": "",
          "type": "bytes32"
        }
      ],
      "name": "fills",
      "outputs": [
        {
          "internalType": "uint256",
          "name": "",
          "type": "uint256"
        }
      ],
      "stateMutability": "view",
      "type": "function"
    },
    {
      "inputs": [],
      "name": "getChainId",
      "outputs": [
        {
          "internalType": "uint256",
          "name": "chainId",
          "type": "uint256"
        }
      ],
      "stateMutability": "view",
      "type": "function"
    },
    {
      "inputs": [
        {
          "components": [
            {
              "internalType": "address",
              "name": "maker",
              "type": "address"
            },
            {
              "components": [
                {
                  "components": [
                    {
                      "internalType": "bytes4",
                      "name": "assetClass",
                      "type": "bytes4"
                    },
                    {
                      "internalType": "bytes",
                      "name": "data",
                      "type": "bytes"
                    }
                  ],
                  "internalType": "struct LibAsset.AssetType",
                  "name": "assetType",
                  "type": "tuple"
                },
                {
                  "internalType": "uint256",
                  "name": "value",
                  "type": "uint256"
                }
              ],
              "internalType": "struct LibAsset.Asset",
              "name": "makeAsset",
              "type": "tuple"
            },
            {
              "internalType": "address",
              "name": "taker",
              "type": "address"
            },
            {
              "components": [
                {
                  "components": [
                    {
                      "internalType": "bytes4",
                      "name": "assetClass",
                      "type": "bytes4"
                    },
                    {
                      "internalType": "bytes",
                      "name": "data",
                      "type": "bytes"
                    }
                  ],
                  "internalType": "struct LibAsset.AssetType",
                  "name": "assetType",
                  "type": "tuple"
                },
                {
                  "internalType": "uint256",
                  "name": "value",
                  "type": "uint256"
                }
              ],
              "internalType": "struct LibAsset.Asset",
              "name": "takeAsset",
              "type": "tuple"
            },
            {
              "internalType": "uint256",
              "name": "salt",
              "type": "uint256"
            },
            {
              "internalType": "uint256",
              "name": "start",
              "type": "uint256"
            },
            {
              "internalType": "uint256",
              "name": "end",
              "type": "uint256"
            },
            {
              "internalType": "bytes4",
              "name": "dataType",
              "type": "bytes4"
            },
            {
              "internalType": "bytes",
              "name": "data",
              "type": "bytes"
            }
          ],
          "internalType": "struct LibOrder.Order",
          "name": "orderLeft",
          "type": "tuple"
        },
        {
          "internalType": "bytes",
          "name": "signatureLeft",
          "type": "bytes"
        },
        {
          "components": [
            {
              "internalType": "address",
              "name": "maker",
              "type": "address"
            },
            {
              "components": [
                {
                  "components": [
                    {
                      "internalType": "bytes4",
                      "name": "assetClass",
                      "type": "bytes4"
                    },
                    {
                      "internalType": "bytes",
                      "name": "data",
                      "type": "bytes"
                    }
                  ],
                  "internalType": "struct LibAsset.AssetType",
                  "name": "assetType",
                  "type": "tuple"
                },
                {
                  "internalType": "uint256",
                  "name": "value",
                  "type": "uint256"
                }
              ],
              "internalType": "struct LibAsset.Asset",
              "name": "makeAsset",
              "type": "tuple"
            },
            {
              "internalType": "address",
              "name": "taker",
              "type": "address"
            },
            {
              "components": [
                {
                  "components": [
                    {
                      "internalType": "bytes4",
                      "name": "assetClass",
                      "type": "bytes4"
                    },
                    {
                      "internalType": "bytes",
                      "name": "data",
                      "type": "bytes"
                    }
                  ],
                  "internalType": "struct LibAsset.AssetType",
                  "name": "assetType",
                  "type": "tuple"
                },
                {
                  "internalType": "uint256",
                  "name": "value",
                  "type": "uint256"
                }
              ],
              "internalType": "struct LibAsset.Asset",
              "name": "takeAsset",
              "type": "tuple"
            },
            {
              "internalType": "uint256",
              "name": "salt",
              "type": "uint256"
            },
            {
              "internalType": "uint256",
              "name": "start",
              "type": "uint256"
            },
            {
              "internalType": "uint256",
              "name": "end",
              "type": "uint256"
            },
            {
              "internalType": "bytes4",
              "name": "dataType",
              "type": "bytes4"
            },
            {
              "internalType": "bytes",
              "name": "data",
              "type": "bytes"
            }
          ],
          "internalType": "struct LibOrder.Order",
          "name": "orderRight",
          "type": "tuple"
        },
        {
          "internalType": "bytes",
          "name": "signatureRight",
          "type": "bytes"
        }
      ],
      "name": "matchOrders",
      "outputs": [],
      "stateMutability": "payable",
      "type": "function"
    },
    {
      "inputs": [],
      "name": "owner",
      "outputs": [
        {
          "internalType": "address",
          "name": "",
          "type": "address"
        }
      ],
      "stateMutability": "view",
      "type": "function"
    },
    {
      "inputs": [],
      "name": "renounceOwnership",
      "outputs": [],
      "stateMutability": "nonpayable",
      "type": "function"
    },
    {
      "inputs": [
        {
          "internalType": "bytes4",
          "name": "assetType",
          "type": "bytes4"
        },
        {
          "internalType": "address",
          "name": "matcher",
          "type": "address"
        }
      ],
      "name": "setAssetMatcher",
      "outputs": [],
      "stateMutability": "nonpayable",
      "type": "function"
    },
    {
      "inputs": [
        {
          "internalType": "bytes4",
          "name": "assetType",
          "type": "bytes4"
        },
        {
          "internalType": "address",
          "name": "proxy",
          "type": "address"
        }
      ],
      "name": "setTransferProxy",
      "outputs": [],
      "stateMutability": "nonpayable",
      "type": "function"
    },
    {
      "inputs": [
        {
          "internalType": "address",
          "name": "newOwner",
          "type": "address"
        }
      ],
      "name": "transferOwnership",
      "outputs": [],
      "stateMutability": "nonpayable",
      "type": "function"
    },
    {
      "inputs": [
        {
          "internalType": "contract TransferProxy",
          "name": "_transferProxy",
          "type": "address"
        },
        {
          "internalType": "contract ERC20TransferProxy",
          "name": "_erc20TransferProxy",
          "type": "address"
        }
      ],
      "name": "__ExchangeSimpleV2_init",
      "outputs": [],
      "stateMutability": "nonpayable",
      "type": "function"
    }
  ],
  "bytecode": "0x608060405234801561001057600080fd5b50612d84806100206000396000f3fe6080604052600436106100915760003560e01c806398f1b9521161005957806398f1b9521461013a578063b39deb461461015a578063e2864fe31461017a578063e99a3f801461019a578063f2fde38b146101ad57610091565b806320158c441461009657806330c642f1146100cc5780633408e470146100ee578063715018a6146101035780638da5cb5b14610118575b600080fd5b3480156100a257600080fd5b506100b66100b13660046126a6565b6101cd565b6040516100c3919061293f565b60405180910390f35b3480156100d857600080fd5b506100ec6100e73660046126be565b6101e0565b005b3480156100fa57600080fd5b506100b66102b0565b34801561010f57600080fd5b506100ec6102b4565b34801561012457600080fd5b5061012d610360565b6040516100c3919061292b565b34801561014657600080fd5b506100ec6101553660046126f6565b61036f565b34801561016657600080fd5b506100ec6101753660046126be565b610435565b34801561018657600080fd5b506100ec6101953660046127db565b6104f9565b6100ec6101a836600461280e565b610599565b3480156101b957600080fd5b506100ec6101c8366004612641565b610655565b61012f6020526000908152604090205481565b6101e8610758565b6001600160a01b03166101f9610360565b6001600160a01b031614610242576040805162461bcd60e51b81526020600482018190526024820152600080516020612d2f833981519152604482015290519081900360640190fd5b6001600160e01b031982166000818152609760205260409081902080546001600160a01b0319166001600160a01b038516179055517f4b5aced933c0c9a88aeac3f0b3b72c5aaf75df8ebaf53225773248c4c3153593906102a490849061292b565b60405180910390a25050565b4690565b6102bc610758565b6001600160a01b03166102cd610360565b6001600160a01b031614610316576040805162461bcd60e51b81526020600482018190526024820152600080516020612d2f833981519152604482015290519081900360640190fd5b6033546040516000916001600160a01b0316907f8be0079c531659141344cd1fd0a4f28419497f9722a3daafe3b4186f6b6457e0908390a3603380546001600160a01b0319169055565b6033546001600160a01b031690565b600054610100900460ff1680610388575061038861075c565b80610396575060005460ff16155b6103d15760405162461bcd60e51b815260040180806020018281038252602e815260200180612cbe602e913960400191505060405180910390fd5b600054610100900460ff161580156103fc576000805460ff1961ff0019909116610100171660011790555b61040461076d565b61040c61080f565b6104168383610908565b61041e6109b2565b8015610430576000805461ff00191690555b505050565b61043d610758565b6001600160a01b031661044e610360565b6001600160a01b031614610497576040805162461bcd60e51b81526020600482018190526024820152600080516020612d2f833981519152604482015290519081900360640190fd5b6001600160e01b031982166000818152606560205260409081902080546001600160a01b0319166001600160a01b038516179055517fd2bf91075f105d0fd80328da28e20ebdad1c1261839711183bc29a44cbe6c72f906102a490849061292b565b80516001600160a01b031661050c610758565b6001600160a01b03161461053b5760405162461bcd60e51b815260040161053290612b10565b60405180910390fd5b600061054682610a82565b600081815261012f6020526040908190206000199055519091507fe8d9861dbc9c663ed3accd261bbe2fe01e0d3d9e5f51fa38523b265c7757a93a9061058d90839061293f565b60405180910390a15050565b6105a38484610af7565b6105ad8282610af7565b60408401516001600160a01b0316156105f95783604001516001600160a01b031682600001516001600160a01b0316146105f95760405162461bcd60e51b815260040161053290612a33565b60408201516001600160a01b0316156106455783600001516001600160a01b031682604001516001600160a01b0316146106455760405162461bcd60e51b815260040161053290612a33565b61064f8483610b0e565b50505050565b61065d610758565b6001600160a01b031661066e610360565b6001600160a01b0316146106b7576040805162461bcd60e51b81526020600482018190526024820152600080516020612d2f833981519152604482015290519081900360640190fd5b6001600160a01b0381166106fc5760405162461bcd60e51b8152600401808060200182810382526026815260200180612c766026913960400191505060405180910390fd5b6033546040516001600160a01b038084169216907f8be0079c531659141344cd1fd0a4f28419497f9722a3daafe3b4186f6b6457e090600090a3603380546001600160a01b0319166001600160a01b0392909216919091179055565b3390565b600061076730610d30565b15905090565b600054610100900460ff1680610786575061078661075c565b80610794575060005460ff16155b6107cf5760405162461bcd60e51b815260040180806020018281038252602e815260200180612cbe602e913960400191505060405180910390fd5b600054610100900460ff161580156107fa576000805460ff1961ff0019909116610100171660011790555b801561080c576000805461ff00191690555b50565b600054610100900460ff1680610828575061082861075c565b80610836575060005460ff16155b6108715760405162461bcd60e51b815260040180806020018281038252602e815260200180612cbe602e913960400191505060405180910390fd5b600054610100900460ff1615801561089c576000805460ff1961ff0019909116610100171660011790555b60006108a6610758565b603380546001600160a01b0319166001600160a01b038316908117909155604051919250906000907f8be0079c531659141344cd1fd0a4f28419497f9722a3daafe3b4186f6b6457e0908290a350801561080c576000805461ff001916905550565b60976020527f4532fa16f071d6234e30e1a1e69b9806f04095edf37a1ca7a25c8d6af7861cc080546001600160a01b039283166001600160a01b0319918216179091557f30a684095c937b5aa064dcf94f9903a7d808e3efb22d8389dbd43080ad4ed3d5805493909216928116831790915563025ceed960e61b6000527f4b5822151ea34b7c8d9e37c3e466bcecb631efe6a9f26a4a4054110a93dd316f80549091169091179055565b600054610100900460ff16806109cb57506109cb61075c565b806109d9575060005460ff16155b610a145760405162461bcd60e51b815260040180806020018281038252602e815260200180612cbe602e913960400191505060405180910390fd5b600054610100900460ff16158015610a3f576000805460ff1961ff0019909116610100171660011790555b6107fa6040518060400160405280600881526020016745786368616e676560c01b815250604051806040016040528060018152602001601960f91b815250610d36565b805160208201515160009190610a9790610df6565b606084015151610aa690610df6565b846080015160405160200180856001600160a01b031681526020018481526020018381526020018281526020019450505050506040516020818303038152906040528051906020012090505b919050565b610b0082610e60565b610b0a8282610f2a565b5050565b600080610b1b8484611139565b915091506000610b2a85610a82565b90506000610b3785610a82565b600083815261012f602052604080822054838352908220549293509190610b60898985856111d2565b90506000816020015111610b865760405162461bcd60e51b815260040161053290612a6a565b600080610b968989858e8e611262565b8a5191935091506001600160e01b0319166355575f5d60e11b1415610bf65781341015610bd55760405162461bcd60e51b815260040161053290612ae8565b81341115610bf157610bf1610bea3484611353565b33906113b5565b610c45565b87516001600160e01b0319166355575f5d60e11b1415610c455780341015610c305760405162461bcd60e51b815260040161053290612ae8565b80341115610c4557610c45610bea3483611353565b6000610c4f610758565b90508b600001516001600160a01b0316816001600160a01b031614610c8f576020840151610c7e90879061144d565b600089815261012f60205260409020555b8a516001600160a01b03828116911614610cc1578351610cb090869061144d565b600088815261012f60205260409020555b8a600001516001600160a01b03168c600001516001600160a01b03167f6bd3176da6f0aab285937ad5ead5f53b9036f403cfad62f77e4e0f80b5a7e18d8a8a88602001518960000151604051610d1a9493929190612948565b60405180910390a3505050505050505050505050565b3b151590565b600054610100900460ff1680610d4f5750610d4f61075c565b80610d5d575060005460ff16155b610d985760405162461bcd60e51b815260040180806020018281038252602e815260200180612cbe602e913960400191505060405180910390fd5b600054610100900460ff16158015610dc3576000805460ff1961ff0019909116610100171660011790555b825160208085019190912083519184019190912060c99190915560ca558015610430576000805461ff0019169055505050565b8051602091820151805190830120604080517f452a0dc408cb0d27ffc3b3caff933a5208040a53a9dbecd8d89cad2c0d40e00c818601526001600160e01b031990931683820152606080840192909252805180840390920182526080909201909152805191012090565b60a08101511580610e745750428160a00151105b610ec5576040805162461bcd60e51b815260206004820152601d60248201527f4f726465722073746172742076616c69646174696f6e206661696c6564000000604482015290519081900360640190fd5b60c08101511580610ed95750428160c00151115b61080c576040805162461bcd60e51b815260206004820152601b60248201527f4f7264657220656e642076616c69646174696f6e206661696c65640000000000604482015290519081900360640190fd5b81516001600160a01b0316610f3d610758565b6001600160a01b031614610b0a576000610f56836114ae565b9050610f6e83600001516001600160a01b0316610d30565b156110c0578251630b135d3f60e11b906001600160a01b0316631626ba7e610f958461159e565b856040518363ffffffff1660e01b81526004018083815260200180602001828103825283818151815260200191508051906020019080838360005b83811015610fe8578181015183820152602001610fd0565b50505050905090810190601f1680156110155780820380516001836020036101000a031916815260200191505b50935050505060206040518083038186803b15801561103357600080fd5b505afa158015611047573d6000803e3d6000fd5b505050506040513d602081101561105d57600080fd5b50516001600160e01b031916146110bb576040805162461bcd60e51b815260206004820152601c60248201527f7369676e617475726520766572696669636174696f6e206572726f7200000000604482015290519081900360640190fd5b610430565b82516001600160a01b03166110de836110d88461159e565b906115ea565b6001600160a01b031614610430576040805162461bcd60e51b815260206004820152601c60248201527f7369676e617475726520766572696669636174696f6e206572726f7200000000604482015290519081900360640190fd5b61114161240c565b61114961240c565b60208401515160608401515161115f919061166a565b80519092506001600160e01b03191661118a5760405162461bcd60e51b815260040161053290612a93565b6060840151516020840151516111a0919061166a565b80519091506001600160e01b0319166111cb5760405162461bcd60e51b815260040161053290612a93565b9250929050565b6111da612424565b6000806111e787866116aa565b915091506000806111f888876116aa565b915091508183111561122b576112208960200151602001518a606001516020015184846116ee565b94505050505061125a565b8381111561124f5761122084848a60200151602001518b6060015160200151611774565b6112208484836117f9565b949350505050565b81518151604080518082019091528781528551602082015284516000938493909290916112d29190837fa10bb5b2060a412d05113732875a5431ca23453eb93f797e0ffcb5b40e5f2c3e7f1a0388dd7519a093630516a672419a2562e0e74deb98af068657dc265f0164c961186d565b61133b60405180604001604052808a815260200189602001518152508660000151847fa10bb5b2060a412d05113732875a5431ca23453eb93f797e0ffcb5b40e5f2c3e7fb45a3ba14423c8f1b71cc094845ab56b5294dbe8d8e3ba53f3cdb63d59a4044b61186d565b50508451602090950151949794965093945050505050565b6000828211156113aa576040805162461bcd60e51b815260206004820152601e60248201527f536166654d6174683a207375627472616374696f6e206f766572666c6f770000604482015290519081900360640190fd5b508082035b92915050565b6040516000906001600160a01b0384169083908381818185875af1925050503d8060008114611400576040519150601f19603f3d011682016040523d82523d6000602084013e611405565b606091505b5050905080610430576040805162461bcd60e51b815260206004820152600f60248201526e1d1c985b9cd9995c8819985a5b1959608a1b604482015290519081900360640190fd5b6000828201838110156114a7576040805162461bcd60e51b815260206004820152601b60248201527f536166654d6174683a206164646974696f6e206f766572666c6f770000000000604482015290519081900360640190fd5b9392505050565b60007f477ed43b8020849b755512278536c3766a3b4ab547519949a75f483372493f8d82600001516114e38460200151611c5c565b84604001516114f58660600151611c5c565b86608001518760a001518860c001518960e001518a610100015180519060200120604051602001808b81526020018a6001600160a01b03168152602001898152602001886001600160a01b03168152602001878152602001868152602001858152602001848152602001836001600160e01b03191681526020018281526020019a5050505050505050505050604051602081830303815290604052805190602001209050919050565b60006115a8611ccc565b82604051602001808061190160f01b81525060020183815260200182815260200192505050604051602081830303815290604052805190602001209050919050565b60008151604114611642576040805162461bcd60e51b815260206004820152601f60248201527f45434453413a20696e76616c6964207369676e6174757265206c656e67746800604482015290519081900360640190fd5b60208201516040830151606084015160001a61166086828585611d0c565b9695505050505050565b61167261240c565b600061167e8484611e8a565b80519091506001600160e01b0319166116a35761169b8385611e8a565b9150506113af565b90506113af565b6000806116c88385606001516020015161135390919063ffffffff16565b90506116e5846020015160200151856060015160200151836121eb565b91509250929050565b6116f6612424565b60006117038387876121eb565b90508381111561175a576040805162461bcd60e51b815260206004820152601960248201527f66696c6c52696768743a20756e61626c6520746f2066696c6c00000000000000604482015290519081900360640190fd5b604080518082019091529283526020830152509392505050565b61177c612424565b60006117898585856121eb565b9050858111156117e0576040805162461bcd60e51b815260206004820152601860248201527f66696c6c4c6566743a20756e61626c6520746f2066696c6c0000000000000000604482015290519081900360640190fd5b5050604080518082019091529384525050602082015290565b611801612424565b83821115611856576040805162461bcd60e51b815260206004820152601860248201527f66696c6c426f74683a20756e61626c6520746f2066696c6c0000000000000000604482015290519081900360640190fd5b505060408051808201909152918252602082015290565b8451516001600160e01b0319166355575f5d60e11b141561190e576000836001600160a01b031686602001516040516118a590612928565b60006040518083038185875af1925050503d80600081146118e2576040519150601f19603f3d011682016040523d82523d6000602084013e6118e7565b606091505b50509050806119085760405162461bcd60e51b815260040161053290612abf565b50611c16565b8451516001600160e01b0319166322ba176160e21b14156119ec576000856000015160200151806020019051810190611947919061265d565b6322ba176160e21b600052609760209081527f4532fa16f071d6234e30e1a1e69b9806f04095edf37a1ca7a25c8d6af7861cc0549088015160405163776062c360e01b81529293506001600160a01b039091169163776062c3916119b49185918a918a91906004016129a6565b600060405180830381600087803b1580156119ce57600080fd5b505af11580156119e2573d6000803e3d6000fd5b5050505050611c16565b8451516001600160e01b0319166339d690a360e11b1415611aec57600080866000015160200151806020019051810190611a269190612679565b915091508660200151600114611a4e5760405162461bcd60e51b815260040161053290612a07565b6339d690a360e11b60005260976020527f30a684095c937b5aa064dcf94f9903a7d808e3efb22d8389dbd43080ad4ed3d554604051637b84dc8360e11b81526001600160a01b039091169063f709b90690611ab39085908a908a9087906004016129a6565b600060405180830381600087803b158015611acd57600080fd5b505af1158015611ae1573d6000803e3d6000fd5b505050505050611c16565b8451516001600160e01b03191663025ceed960e61b1415611b9557600080866000015160200151806020019051810190611b269190612679565b63025ceed960e61b600052609760209081527f4b5822151ea34b7c8d9e37c3e466bcecb631efe6a9f26a4a4054110a93dd316f54908a0151604051639c1c2ee960e01b81529395509193506001600160a01b031691639c1c2ee991611ab39186918b918b918891600401612963565b8451516001600160e01b031916600090815260976020526040908190205490516354bc0cf160e01b81526001600160a01b03909116906354bc0cf190611be390889088908890600401612b5a565b600060405180830381600087803b158015611bfd57600080fd5b505af1158015611c11573d6000803e3d6000fd5b505050505b7fcae9d16f553e92058883de29cb3135dbc0c1e31fd7eace79fef1d80577fe482e8585858585604051611c4d959493929190612b8d565b60405180910390a15050505050565b60007fdb6f72e915676cfc289da13bc4ece054fd17b1df6d77ffc4a60510718c236b08611c8c8360000151610df6565b8360200151604051602001808481526020018381526020018281526020019350505050604051602081830303815290604052805190602001209050919050565b6000611d077f8b73c3c69bb8fe3d512ecc4cf759cc79239f7b179b0ffacaa9a75d522b39400f611cfa61224f565b611d02612255565b61225b565b905090565b60007f7fffffffffffffffffffffffffffffff5d576e7357a4501ddfe92f46681b20a0821115611d6d5760405162461bcd60e51b8152600401808060200182810382526022815260200180612c9c6022913960400191505060405180910390fd5b8360ff16601b1480611d8257508360ff16601c145b611dbd5760405162461bcd60e51b8152600401808060200182810382526022815260200180612cec6022913960400191505060405180910390fd5b600060018686868660405160008152602001604052604051808581526020018460ff1681526020018381526020018281526020019450505050506020604051602081039080840390855afa158015611e19573d6000803e3d6000fd5b5050604051601f1901519150506001600160a01b038116611e81576040805162461bcd60e51b815260206004820152601860248201527f45434453413a20696e76616c6964207369676e61747572650000000000000000604482015290519081900360640190fd5b95945050505050565b611e9261240c565b825182516001600160e01b031982166355575f5d60e11b1415611efd576001600160e01b031981166355575f5d60e11b1415611ed25784925050506113af565b50506040805180820182526000808252825160208181019094529081529181019190915290506113af565b6001600160e01b031982166322ba176160e21b1415611fba576001600160e01b031981166322ba176160e21b1415611ed25760008560200151806020019051810190611f49919061265d565b905060008560200151806020019051810190611f65919061265d565b9050806001600160a01b0316826001600160a01b03161415611f8d57869450505050506113af565b505050506040805180820182526000808252825160208181019094529081529181019190915290506113af565b6001600160e01b031982166339d690a360e11b141561208c576001600160e01b031981166339d690a360e11b1415611ed25760008086602001518060200190518101906120079190612679565b9150915060008087602001518060200190518101906120269190612679565b91509150816001600160a01b0316846001600160a01b031614801561204a57508083145b1561205d578896505050505050506113af565b5050505050506040805180820182526000808252825160208181019094529081529181019190915290506113af565b6001600160e01b0319821663025ceed960e61b14156120d9576001600160e01b0319811663025ceed960e61b1415611ed25760008086602001518060200190518101906120079190612679565b6001600160e01b031982166000908152606560205260409020546001600160a01b0316801561218e576040516306d3f7cb60e41b81526001600160a01b03821690636d3f7cb0906121309089908990600401612b35565b60006040518083038186803b15801561214857600080fd5b505afa15801561215c573d6000803e3d6000fd5b505050506040513d6000823e601f3d908101601f191682016040526121849190810190612713565b93505050506113af565b6001600160e01b031983811690831614156121d357602080870151805190820120868201518051920191909120808214156121d05787955050505050506113af565b50505b60405162461bcd60e51b8152600401610532906129d0565b60006121f88484846122bd565b1561223b576040805162461bcd60e51b815260206004820152600e60248201526d3937bab73234b7339032b93937b960911b604482015290519081900360640190fd5b61125a83612249868561234c565b906123a5565b60c95490565b60ca5490565b60008383836122686102b0565b3060405160200180868152602001858152602001848152602001838152602001826001600160a01b03168152602001955050505050506040516020818303038152906040528051906020012090509392505050565b600082612304576040805162461bcd60e51b815260206004820152601060248201526f6469766973696f6e206279207a65726f60801b604482015290519081900360640190fd5b81158061230f575083155b1561231c575060006114a7565b6000838061232657fe5b8584099050612335858461234c565b612341826103e861234c565b101595945050505050565b60008261235b575060006113af565b8282028284828161236857fe5b04146114a75760405162461bcd60e51b8152600401808060200182810382526021815260200180612d0e6021913960400191505060405180910390fd5b60008082116123fb576040805162461bcd60e51b815260206004820152601a60248201527f536166654d6174683a206469766973696f6e206279207a65726f000000000000604482015290519081900360640190fd5b81838161240457fe5b049392505050565b60408051808201909152600081526060602082015290565b604051806040016040528060008152602001600081525090565b8035610af281612c4a565b8035610af281612c5f565b600082601f830112612464578081fd5b813561247761247282612bfc565b612bd8565b81815284602083860101111561248b578283fd5b816020850160208301379081016020019190915292915050565b600060408083850312156124b7578182fd5b805181810167ffffffffffffffff82821081831117156124d357fe5b8184528294508535818111156124e857600080fd5b86018088038513156124f957600080fd5b60808401838110838211171561250b57fe5b90945283359361251a85612c5f565b9382526020840135938185111561253057600080fd5b61253c88868301612454565b60608501525050815260209384013593019290925292915050565b600061012080838503121561256a578182fd5b61257381612bd8565b91505061257f8261243e565b8152602082013567ffffffffffffffff8082111561259c57600080fd5b6125a8858386016124a5565b60208401526125b96040850161243e565b604084015260608401359150808211156125d257600080fd5b6125de858386016124a5565b60608401526080840135608084015260a084013560a084015260c084013560c084015261260d60e08501612449565b60e08401526101009150818401358181111561262857600080fd5b61263486828701612454565b8385015250505092915050565b600060208284031215612652578081fd5b81356114a781612c4a565b60006020828403121561266e578081fd5b81516114a781612c4a565b6000806040838503121561268b578081fd5b825161269681612c4a565b6020939093015192949293505050565b6000602082840312156126b7578081fd5b5035919050565b600080604083850312156126d0578182fd5b82356126db81612c5f565b915060208301356126eb81612c4a565b809150509250929050565b60008060408385031215612708578182fd5b82356126db81612c4a565b60006020808385031215612725578182fd5b825167ffffffffffffffff8082111561273c578384fd5b908401906040828703121561274f578384fd5b60405160408101818110838211171561276457fe5b604052825161277281612c5f565b81528284015182811115612784578586fd5b80840193505086601f840112612798578485fd5b825191506127a861247283612bfc565b82815287858486010111156127bb578586fd5b6127ca83868301878701612c1e565b938101939093525090949350505050565b6000602082840312156127ec578081fd5b813567ffffffffffffffff811115612802578182fd5b61125a84828501612557565b60008060008060808587031215612823578182fd5b843567ffffffffffffffff8082111561283a578384fd5b61284688838901612557565b9550602087013591508082111561285b578384fd5b61286788838901612454565b9450604087013591508082111561287c578384fd5b61288888838901612557565b9350606087013591508082111561289d578283fd5b506128aa87828801612454565b91505092959194509250565b600063ffffffff60e01b825116835260208201516040602085015280518060408601526128ea816060870160208501612c1e565b601f01601f1916939093016060019392505050565b600081516040845261291460408501826128b6565b602093840151949093019390935250919050565b90565b6001600160a01b0391909116815260200190565b90815260200190565b93845260208401929092526040830152606082015260800190565b6001600160a01b03958616815293851660208501529190931660408301526060820192909252608081019190915260c060a0820181905260009082015260e00190565b6001600160a01b039485168152928416602084015292166040820152606081019190915260800190565b60208082526017908201527f6e6f7420666f756e64204941737365744d617463686572000000000000000000604082015260600190565b60208082526012908201527132b9319b9918903b30b63ab29032b93937b960711b604082015260600190565b60208082526019908201527f74616b657220766572696669636174696f6e206661696c656400000000000000604082015260600190565b6020808252600f908201526e1b9bdd1a1a5b99c81d1bc8199a5b1b608a1b604082015260600190565b6020808252601290820152710c2e6e6cae8e640c8dedc4ee840dac2e8c6d60731b604082015260600190565b6020808252600f908201526e1d1c985b9cd9995c8819985a5b1959608a1b604082015260600190565b6020808252600e908201526d0dcdee840cadcdeeaced040cae8d60931b604082015260600190565b6020808252600b908201526a3737ba10309036b0b5b2b960a91b604082015260600190565b600060408252612b4860408301856128b6565b8281036020840152611e8181856128b6565b600060608252612b6d60608301866128ff565b6001600160a01b0394851660208401529290931660409091015292915050565b600060a08252612ba060a08301886128ff565b6001600160a01b0396871660208401529490951660408201526001600160e01b03199283166060820152911660809091015292915050565b60405181810167ffffffffffffffff81118282101715612bf457fe5b604052919050565b600067ffffffffffffffff821115612c1057fe5b50601f01601f191660200190565b60005b83811015612c39578181015183820152602001612c21565b8381111561064f5750506000910152565b6001600160a01b038116811461080c57600080fd5b6001600160e01b03198116811461080c57600080fdfe4f776e61626c653a206e6577206f776e657220697320746865207a65726f206164647265737345434453413a20696e76616c6964207369676e6174757265202773272076616c7565496e697469616c697a61626c653a20636f6e747261637420697320616c726561647920696e697469616c697a656445434453413a20696e76616c6964207369676e6174757265202776272076616c7565536166654d6174683a206d756c7469706c69636174696f6e206f766572666c6f774f776e61626c653a2063616c6c6572206973206e6f7420746865206f776e6572a26469706673582212205f3f558ece9d2c9b051de6d4952f2b9136ce6a07ffadc0a4b8d186e8ae596dd664736f6c63430007060033",
  "immutableReferences": {},
  "source": "// SPDX-License-Identifier: MIT\n\npragma solidity >=0.6.2 <0.8.0;\npragma abicoder v2;\n\nimport \"./ExchangeV2Core.sol\";\nimport \"./SimpleTransferManager.sol\";\n\ncontract ExchangeSimpleV2 is ExchangeV2Core, SimpleTransferManager {\n    function __ExchangeSimpleV2_init(\n        TransferProxy _transferProxy,\n        ERC20TransferProxy _erc20TransferProxy\n    ) external initializer {\n        __Context_init_unchained();\n        __Ownable_init_unchained();\n        __TransferExecutor_init_unchained(_transferProxy, _erc20TransferProxy);\n        __OrderValidator_init_unchained();\n    }\n}\n",
  "sourcePath": "F:/Development/ideasoft/dArtFlex/protocol-contracts/exchange-v2/contracts/exchange/v2/ExchangeSimpleV2.sol",
  "compiler": {
    "name": "solc",
    "version": "0.7.6+commit.7338295f.Emscripten.clang"
  },
  "schemaVersion": "3.4.1",
  "updatedAt": "2021-09-22T02:20:51.031Z",
  "devdoc": {
    "kind": "dev",
    "methods": {
      "owner()": {
        "details": "Returns the address of the current owner."
      },
      "renounceOwnership()": {
        "details": "Leaves the contract without owner. It will not be possible to call `onlyOwner` functions anymore. Can only be called by the current owner. NOTE: Renouncing ownership will leave the contract without an owner, thereby removing any functionality that is only available to the owner."
      },
      "transferOwnership(address)": {
        "details": "Transfers ownership of the contract to a new account (`newOwner`). Can only be called by the current owner."
      }
    },
    "version": 1
  },
  "userdoc": {
    "kind": "user",
    "methods": {},
    "version": 1
  }
}