{
  "contractName": "RoyaltiesRegistry",
  "abi": [
    {
      "anonymous": false,
      "inputs": [
        {
          "indexed": true,
          "internalType": "address",
          "name": "previousOwner",
          "type": "address"
        },
        {
          "indexed": true,
          "internalType": "address",
          "name": "newOwner",
          "type": "address"
        }
      ],
      "name": "OwnershipTransferred",
      "type": "event"
    },
    {
      "inputs": [],
      "name": "owner",
      "outputs": [
        {
          "internalType": "address",
          "name": "",
          "type": "address"
        }
      ],
      "stateMutability": "view",
      "type": "function"
    },
    {
      "inputs": [],
      "name": "renounceOwnership",
      "outputs": [],
      "stateMutability": "nonpayable",
      "type": "function"
    },
    {
      "inputs": [
        {
          "internalType": "address",
          "name": "",
          "type": "address"
        }
      ],
      "name": "royaltiesByToken",
      "outputs": [
        {
          "internalType": "bool",
          "name": "initialized",
          "type": "bool"
        }
      ],
      "stateMutability": "view",
      "type": "function"
    },
    {
      "inputs": [
        {
          "internalType": "bytes32",
          "name": "",
          "type": "bytes32"
        }
      ],
      "name": "royaltiesByTokenAndTokenId",
      "outputs": [
        {
          "internalType": "bool",
          "name": "initialized",
          "type": "bool"
        }
      ],
      "stateMutability": "view",
      "type": "function"
    },
    {
      "inputs": [
        {
          "internalType": "address",
          "name": "",
          "type": "address"
        }
      ],
      "name": "royaltiesProviders",
      "outputs": [
        {
          "internalType": "address",
          "name": "",
          "type": "address"
        }
      ],
      "stateMutability": "view",
      "type": "function"
    },
    {
      "inputs": [
        {
          "internalType": "address",
          "name": "newOwner",
          "type": "address"
        }
      ],
      "name": "transferOwnership",
      "outputs": [],
      "stateMutability": "nonpayable",
      "type": "function"
    },
    {
      "inputs": [],
      "name": "initializeRoyaltiesRegistry",
      "outputs": [],
      "stateMutability": "nonpayable",
      "type": "function"
    },
    {
      "inputs": [
        {
          "internalType": "address",
          "name": "token",
          "type": "address"
        },
        {
          "internalType": "address",
          "name": "provider",
          "type": "address"
        }
      ],
      "name": "setProviderByToken",
      "outputs": [],
      "stateMutability": "nonpayable",
      "type": "function"
    },
    {
      "inputs": [
        {
          "internalType": "address",
          "name": "token",
          "type": "address"
        },
        {
          "components": [
            {
              "internalType": "address payable",
              "name": "account",
              "type": "address"
            },
            {
              "internalType": "uint96",
              "name": "value",
              "type": "uint96"
            }
          ],
          "internalType": "struct LibPart.Part[]",
          "name": "royalties",
          "type": "tuple[]"
        }
      ],
      "name": "setRoyaltiesByToken",
      "outputs": [],
      "stateMutability": "nonpayable",
      "type": "function"
    },
    {
      "inputs": [
        {
          "internalType": "address",
          "name": "token",
          "type": "address"
        },
        {
          "internalType": "uint256",
          "name": "tokenId",
          "type": "uint256"
        },
        {
          "components": [
            {
              "internalType": "address payable",
              "name": "account",
              "type": "address"
            },
            {
              "internalType": "uint96",
              "name": "value",
              "type": "uint96"
            }
          ],
          "internalType": "struct LibPart.Part[]",
          "name": "royalties",
          "type": "tuple[]"
        }
      ],
      "name": "setRoyaltiesByTokenAndTokenId",
      "outputs": [],
      "stateMutability": "nonpayable",
      "type": "function"
    },
    {
      "inputs": [
        {
          "internalType": "address",
          "name": "token",
          "type": "address"
        },
        {
          "internalType": "uint256",
          "name": "tokenId",
          "type": "uint256"
        }
      ],
      "name": "getRoyalties",
      "outputs": [
        {
          "components": [
            {
              "internalType": "address payable",
              "name": "account",
              "type": "address"
            },
            {
              "internalType": "uint96",
              "name": "value",
              "type": "uint96"
            }
          ],
          "internalType": "struct LibPart.Part[]",
          "name": "",
          "type": "tuple[]"
        }
      ],
      "stateMutability": "nonpayable",
      "type": "function"
    }
  ],
  "bytecode": "0x608060405234801561001057600080fd5b506119c6806100206000396000f3fe608060405234801561001057600080fd5b50600436106100a95760003560e01c8063acf14efb11610071578063acf14efb1461011e578063c652885f14610131578063d1da3cce14610144578063d836f01314610157578063f2fde38b1461016a578063f39cc7061461017d576100a9565b806305df952f146100ae57806318b7b582146100d7578063715018a6146100e15780638da5cb5b146100e95780639ca7dc7a146100fe575b600080fd5b6100c16100bc366004611268565b610190565b6040516100ce919061166c565b60405180910390f35b6100df6101a5565b005b6100df61024f565b6100f161030d565b6040516100ce91906115de565b61011161010c36600461132d565b61031c565b6040516100ce919061160b565b6100df61012c3660046112df565b610545565b6100df61013f366004611358565b61074b565b6100c16101523660046115c6565b6107b4565b6100df6101653660046112a7565b6107c9565b6100df610178366004611268565b610850565b6100f161018b366004611268565b610965565b60986020526000908152604090205460ff1681565b600054610100900460ff16806101be57506101be610980565b806101cc575060005460ff16155b6102075760405162461bcd60e51b815260040180806020018281038252602e815260200180611963602e913960400191505060405180910390fd5b600054610100900460ff16158015610232576000805460ff1961ff0019909116610100171660011790555b61023a610991565b801561024c576000805461ff00191690555b50565b610257610a8a565b6001600160a01b031661026861030d565b6001600160a01b0316146102c3576040805162461bcd60e51b815260206004820181905260248201527f4f776e61626c653a2063616c6c6572206973206e6f7420746865206f776e6572604482015290519081900360640190fd5b6033546040516000916001600160a01b0316907f8be0079c531659141344cd1fd0a4f28419497f9722a3daafe3b4186f6b6457e0908390a3603380546001600160a01b0319169055565b6033546001600160a01b031690565b606060026065541415610364576040805162461bcd60e51b815260206004820152601f602482015260008051602061191d833981519152604482015290519081900360640190fd5b600260658190555060006097600085856040516020016103859291906115f2565b60408051601f198184030181529181528151602092830120835282820193909352908201600090812083518085018552815460ff161515815260018201805486518187028101870190975280875291959294868101949192919084015b8282101561043157600084815260209081902060408051808201909152908401546001600160a01b0381168252600160a01b90046001600160601b0316818301528252600190920191016103e2565b5050509152505080519091501561044d5760200151905061053a565b6001600160a01b038416600090815260986020908152604080832081518083018352815460ff16151581526001820180548451818702810187019095528085529195929486810194939192919084015b828210156104ec57600084815260209081902060408051808201909152908401546001600160a01b0381168252600160a01b90046001600160601b03168183015282526001909201910161049d565b505050915250508051909150156105085760200151905061053a565b60008061051486610a8e565b915091508161052a576105278686610b4c565b90505b610535868683610f08565b925050505b600160655592915050565b6002606554141561058b576040805162461bcd60e51b815260206004820152601f602482015260008051602061191d833981519152604482015290519081900360640190fd5b6002606555610599826110bf565b6000805b82518110156106fd5760006001600160a01b03168382815181106105bd57fe5b6020026020010151600001516001600160a01b031614156105f95760405162461bcd60e51b81526004016105f09061168c565b60405180910390fd5b82818151811061060557fe5b6020026020010151602001516001600160601b03166000141561063a5760405162461bcd60e51b81526004016105f0906116d8565b60986000856001600160a01b03166001600160a01b0316815260200190815260200160002060010183828151811061066e57fe5b602090810291909101810151825460018101845560009384529282902081519301805491909201516001600160601b0316600160a01b026001600160a01b039384166001600160a01b03199092169190911790921691909117905582518390829081106106d757fe5b6020026020010151602001516001600160601b031682019150808060010191505061059d565b50612710811061071f5760405162461bcd60e51b81526004016105f090611724565b50506001600160a01b03166000908152609860205260409020805460ff19166001908117909155606555565b60026065541415610791576040805162461bcd60e51b815260206004820152601f602482015260008051602061191d833981519152604482015290519081900360640190fd5b600260655561079f836110bf565b6107aa838383610f08565b5050600160655550565b60976020526000908152604090205460ff1681565b6002606554141561080f576040805162461bcd60e51b815260206004820152601f602482015260008051602061191d833981519152604482015290519081900360640190fd5b600260655561081d826110bf565b6001600160a01b03918216600090815260996020526040902080546001600160a01b031916919092161790556001606555565b610858610a8a565b6001600160a01b031661086961030d565b6001600160a01b0316146108c4576040805162461bcd60e51b815260206004820181905260248201527f4f776e61626c653a2063616c6c6572206973206e6f7420746865206f776e6572604482015290519081900360640190fd5b6001600160a01b0381166109095760405162461bcd60e51b815260040180806020018281038252602681526020018061193d6026913960400191505060405180910390fd5b6033546040516001600160a01b038084169216907f8be0079c531659141344cd1fd0a4f28419497f9722a3daafe3b4186f6b6457e090600090a3603380546001600160a01b0319166001600160a01b0392909216919091179055565b6099602052600090815260409020546001600160a01b031681565b600061098b30611195565b15905090565b600054610100900460ff16806109aa57506109aa610980565b806109b8575060005460ff16155b6109f35760405162461bcd60e51b815260040180806020018281038252602e815260200180611963602e913960400191505060405180910390fd5b600054610100900460ff16158015610a1e576000805460ff1961ff0019909116610100171660011790555b6000610a28610a8a565b603380546001600160a01b0319166001600160a01b038316908117909155604051919250906000907f8be0079c531659141344cd1fd0a4f28419497f9722a3daafe3b4186f6b6457e0908290a350801561024c576000805461ff001916905550565b3390565b6001600160a01b038082166000908152609960205260408120549091606091168015610b4657604051634e53ee3d60e11b815281906001600160a01b03821690639ca7dc7a90610ae59088906000906004016115f2565b600060405180830381600087803b158015610aff57600080fd5b505af1925050508015610b3457506040513d6000823e601f3d908101601f19168201604052610b319190810190611448565b60015b610b3d57610b44565b6001945092505b505b50915091565b6040516301ffc9a760e01b81526060906001600160a01b038416906301ffc9a790610b8290631131d2f360e21b90600401611677565b60206040518083038186803b158015610b9a57600080fd5b505afa158015610bae573d6000803e3d6000fd5b505050506040513d601f19601f82011682018060405250810190610bd291906115a6565b15610c6a57604051635d9dd7eb60e11b815283906001600160a01b0382169063bb3bafd690610c059086906004016118a7565b60006040518083038186803b158015610c1d57600080fd5b505afa925050508015610c5257506040513d6000823e601f3d908101601f19168201604052610c4f9190810190611448565b60015b610c5b57610c64565b9150610f029050565b50610f02565b6040516301ffc9a760e01b81526001600160a01b038416906301ffc9a790610c9d90632dde656160e21b90600401611677565b60206040518083038186803b158015610cb557600080fd5b505afa158015610cc9573d6000803e3d6000fd5b505050506040513d601f19601f82011682018060405250810190610ced91906115a6565b15610f025760405163b9c4d9fb60e01b815283906060906001600160a01b0383169063b9c4d9fb90610d239087906004016118a7565b60006040518083038186803b158015610d3b57600080fd5b505afa925050508015610d7057506040513d6000823e601f3d908101601f19168201604052610d6d91908101906113af565b60015b610d7b575050610f02565b9050604051630ebd4c7f60e01b81526060906001600160a01b03841690630ebd4c7f90610dac9088906004016118a7565b60006040518083038186803b158015610dc457600080fd5b505afa925050508015610df957506040513d6000823e601f3d908101601f19168201604052610df69190810190611522565b60015b610e0557505050610f02565b90508151815114610e1857505050610f02565b805167ffffffffffffffff81118015610e3057600080fd5b50604051908082528060200260200182016040528015610e6a57816020015b610e5761119b565b815260200190600190039081610e4f5790505b50935060005b8151811015610efd57818181518110610e8557fe5b6020026020010151858281518110610e9957fe5b6020026020010151602001906001600160601b031690816001600160601b031681525050828181518110610ec957fe5b6020026020010151858281518110610edd57fe5b60209081029190910101516001600160a01b039091169052600101610e70565b505050505b92915050565b6000808484604051602001610f1e9291906115f2565b60405160208183030381529060405280519060200120905060005b835181101561107e5760006001600160a01b0316848281518110610f5957fe5b6020026020010151600001516001600160a01b03161415610f8c5760405162461bcd60e51b81526004016105f090611851565b838181518110610f9857fe5b6020026020010151602001516001600160601b031660001415610fcd5760405162461bcd60e51b81526004016105f0906117fb565b60976000838152602001908152602001600020600101848281518110610fef57fe5b602090810291909101810151825460018101845560009384529282902081519301805491909201516001600160601b0316600160a01b026001600160a01b039384166001600160a01b031990921691909117909216919091179055835184908290811061105857fe5b6020026020010151602001516001600160601b0316830192508080600101915050610f39565b5061271082106110a05760405162461bcd60e51b81526004016105f09061176e565b6000908152609760205260409020805460ff1916600117905550505050565b6110c7610a8a565b6001600160a01b03166110d861030d565b6001600160a01b03161415801561117857506110f2610a8a565b6001600160a01b0316816001600160a01b0316638da5cb5b6040518163ffffffff1660e01b815260040160206040518083038186803b15801561113457600080fd5b505afa158015611148573d6000803e3d6000fd5b505050506040513d601f19601f8201168201806040525081019061116c919061128b565b6001600160a01b031614155b1561024c5760405162461bcd60e51b81526004016105f0906117c4565b3b151590565b604080518082019091526000808252602082015290565b600082601f8301126111c2578081fd5b813560206111d76111d2836118d4565b6118b0565b828152818101908583016040808602880185018910156111f5578687fd5b865b8681101561125a5781838b03121561120d578788fd5b815182810181811067ffffffffffffffff8211171561122857fe5b83528335611235816118f2565b81528387013561124481611907565b81880152855293850193918101916001016111f7565b509198975050505050505050565b600060208284031215611279578081fd5b8135611284816118f2565b9392505050565b60006020828403121561129c578081fd5b8151611284816118f2565b600080604083850312156112b9578081fd5b82356112c4816118f2565b915060208301356112d4816118f2565b809150509250929050565b600080604083850312156112f1578182fd5b82356112fc816118f2565b9150602083013567ffffffffffffffff811115611317578182fd5b611323858286016111b2565b9150509250929050565b6000806040838503121561133f578182fd5b823561134a816118f2565b946020939093013593505050565b60008060006060848603121561136c578081fd5b8335611377816118f2565b925060208401359150604084013567ffffffffffffffff811115611399578182fd5b6113a5868287016111b2565b9150509250925092565b600060208083850312156113c1578182fd5b825167ffffffffffffffff8111156113d7578283fd5b8301601f810185136113e7578283fd5b80516113f56111d2826118d4565b8181528381019083850185840285018601891015611411578687fd5b8694505b8385101561143c578051611428816118f2565b835260019490940193918501918501611415565b50979650505050505050565b6000602080838503121561145a578182fd5b825167ffffffffffffffff80821115611471578384fd5b818501915085601f830112611484578384fd5b81516114926111d2826118d4565b818152848101908486016040808502870188018b10156114b0578889fd5b8896505b848710156115135780828c0312156114ca578889fd5b805181810181811088821117156114dd57fe5b825282516114ea816118f2565b8152828901516114f981611907565b818a015284526001969096019592870192908101906114b4565b50909998505050505050505050565b60006020808385031215611534578182fd5b825167ffffffffffffffff81111561154a578283fd5b8301601f8101851361155a578283fd5b80516115686111d2826118d4565b8181528381019083850185840285018601891015611584578687fd5b8694505b8385101561143c578051835260019490940193918501918501611588565b6000602082840312156115b7578081fd5b81518015158114611284578182fd5b6000602082840312156115d7578081fd5b5035919050565b6001600160a01b0391909116815260200190565b6001600160a01b03929092168252602082015260400190565b602080825282518282018190526000919060409081850190868401855b8281101561165f57815180516001600160a01b031685528601516001600160601b0316868501529284019290850190600101611628565b5091979650505050505050565b901515815260200190565b6001600160e01b031991909116815260200190565b6020808252602c908201527f526f79616c746965734279546f6b656e20726563697069656e742073686f756c60408201526b19081899481c1c995cd95b9d60a21b606082015260800190565b6020808252602c908201527f4665652076616c756520666f7220526f79616c746965734279546f6b656e207360408201526b0686f756c64206265203e20360a41b606082015260800190565b6020808252602a908201527f53657420627920746f6b656e20726f79616c746965732073756d206d6f72652c604082015269207468616e203130302560b01b606082015260800190565b60208082526036908201527f53657420627920746f6b656e20616e6420746f6b656e496420726f79616c746960408201527565732073756d206d6f72652c207468616e203130302560501b606082015260800190565b60208082526018908201527f546f6b656e206f776e6572206e6f742064657465637465640000000000000000604082015260600190565b60208082526036908201527f4665652076616c756520666f7220526f79616c746965734279546f6b656e416e604082015275064546f6b656e49642073686f756c64206265203e20360541b606082015260800190565b60208082526036908201527f526f79616c746965734279546f6b656e416e64546f6b656e49642072656369706040820152751a595b9d081cda1bdd5b19081899481c1c995cd95b9d60521b606082015260800190565b90815260200190565b60405181810167ffffffffffffffff811182821017156118cc57fe5b604052919050565b600067ffffffffffffffff8211156118e857fe5b5060209081020190565b6001600160a01b038116811461024c57600080fd5b6001600160601b038116811461024c57600080fdfe5265656e7472616e637947756172643a207265656e7472616e742063616c6c004f776e61626c653a206e6577206f776e657220697320746865207a65726f2061646472657373496e697469616c697a61626c653a20636f6e747261637420697320616c726561647920696e697469616c697a6564a2646970667358221220ac68c37d980fa95f88627b0775eff4caa4dde9a5b569073dfdff3f75e3574f4364736f6c63430007060033",
  "immutableReferences": {},
  "source": "// SPDX-License-Identifier: MIT\n\npragma solidity >=0.6.2 <0.8.0;\npragma abicoder v2;\n\nimport \"./IRoyaltiesProvider.sol\";\nimport \"@rarible/royalties/contracts/LibRoyaltiesV2.sol\";\nimport \"@rarible/royalties/contracts/LibRoyaltiesV1.sol\";\nimport \"@rarible/royalties/contracts/impl/RoyaltiesV1Impl.sol\";\nimport \"@rarible/royalties/contracts/impl/RoyaltiesV2Impl.sol\";\nimport \"@openzeppelin/contracts-upgradeable/token/ERC721/IERC721Upgradeable.sol\";\nimport \"@openzeppelin/contracts-upgradeable/access/OwnableUpgradeable.sol\";\nimport \"@openzeppelin/contracts-upgradeable/utils/ReentrancyGuardUpgradeable.sol\";\n\ncontract RoyaltiesRegistry is IRoyaltiesProvider, OwnableUpgradeable, ReentrancyGuardUpgradeable {\n\n\tstruct RoyaltiesSet {\n\t\tbool initialized;\n\t\tLibPart.Part[] royalties;\n\t}\n\n\tmapping(bytes32 => RoyaltiesSet) public royaltiesByTokenAndTokenId;\n\tmapping(address => RoyaltiesSet) public royaltiesByToken;\n\tmapping(address => address) public royaltiesProviders;\n\n\tfunction initializeRoyaltiesRegistry() external initializer {\n\t\t__Ownable_init_unchained();\n\t}\n\n\tfunction setProviderByToken(address token, address provider) external nonReentrant {\n\t\tcheckOwner(token);\n\t\troyaltiesProviders[token] = provider;\n\t}\n\n\tfunction setRoyaltiesByToken(address token, LibPart.Part[] memory royalties) external nonReentrant {\n\t\tcheckOwner(token);\n\t\tuint sumRoyalties = 0;\n\t\tfor (uint i = 0; i < royalties.length; i++) {\n\t\t\trequire(royalties[i].account != address(0x0), \"RoyaltiesByToken recipient should be present\");\n\t\t\trequire(royalties[i].value != 0, \"Fee value for RoyaltiesByToken should be > 0\");\n\t\t\troyaltiesByToken[token].royalties.push(royalties[i]);\n\t\t\tsumRoyalties += royalties[i].value;\n\t\t}\n\t\trequire(sumRoyalties < 10000, \"Set by token royalties sum more, than 100%\");\n\t\troyaltiesByToken[token].initialized = true;\n\t}\n\n\tfunction setRoyaltiesByTokenAndTokenId(address token, uint tokenId, LibPart.Part[] memory royalties) external nonReentrant {\n\t\tcheckOwner(token);\n\t\tsetRoyaltiesCacheByTokenAndTokenId(token, tokenId, royalties);\n\t}\n\n\tfunction checkOwner(address token) internal view {\n\t\tif ((owner() != _msgSender()) && (OwnableUpgradeable(token).owner() != _msgSender())){\n\t\t\trevert(\"Token owner not detected\");\n\t\t}\n\t}\n\n\tfunction getRoyalties(address token, uint tokenId) override external nonReentrant returns (LibPart.Part[] memory) {\n\t\tRoyaltiesSet memory royaltiesSet = royaltiesByTokenAndTokenId[keccak256(abi.encode(token, tokenId))];\n\t\tif (royaltiesSet.initialized) {\n\t\t\treturn royaltiesSet.royalties;\n\t\t}\n\t\troyaltiesSet = royaltiesByToken[token];\n\t\tif (royaltiesSet.initialized) {\n\t\t\treturn royaltiesSet.royalties;\n\t\t}\n\t\t(bool result, LibPart.Part[] memory resultRoyalties) = providerExtractor(token);\n\t\tif (!result) {\n\t\t\tresultRoyalties = royaltiesFromContract(token, tokenId);\n\t\t}\n\t\tsetRoyaltiesCacheByTokenAndTokenId (token, tokenId, resultRoyalties);\n\t\treturn resultRoyalties;\t\n\t}\n\n\tfunction setRoyaltiesCacheByTokenAndTokenId(address token, uint tokenId, LibPart.Part[] memory royalties) internal {\n\t\tuint sumRoyalties = 0;\n\t\tbytes32 key = keccak256(abi.encode(token, tokenId));\n\t\tfor (uint i = 0; i < royalties.length; i++) {\n\t\t\trequire(royalties[i].account != address(0x0), \"RoyaltiesByTokenAndTokenId recipient should be present\");\n\t\t\trequire(royalties[i].value != 0, \"Fee value for RoyaltiesByTokenAndTokenId should be > 0\");\n\t\t\troyaltiesByTokenAndTokenId[key].royalties.push(royalties[i]);\n\t\t\tsumRoyalties += royalties[i].value;\n\t\t}\n\t\trequire(sumRoyalties < 10000, \"Set by token and tokenId royalties sum more, than 100%\");\n\t\troyaltiesByTokenAndTokenId[key].initialized = true;\n\t}\n\n\tfunction royaltiesFromContract(address token, uint tokenId) internal view returns (LibPart.Part[] memory feesRecipients) {\n\t\tif (IERC165Upgradeable(token).supportsInterface(LibRoyaltiesV2._INTERFACE_ID_ROYALTIES)) {\n\t\t\tRoyaltiesV2Impl withFees = RoyaltiesV2Impl(token);\n\t\t\ttry withFees.getRoyalties(tokenId) returns (LibPart.Part[] memory feesRecipientsResult) {\n\t\t\t\treturn feesRecipientsResult;\n\t\t\t} catch {}\n\t\t} else if (IERC165Upgradeable(token).supportsInterface(LibRoyaltiesV1._INTERFACE_ID_FEES)) {\n\t\t\tRoyaltiesV1Impl withFees = RoyaltiesV1Impl(token);\n\t\t\taddress payable[] memory recipients;\n\t\t\ttry withFees.getFeeRecipients(tokenId) returns (address payable[] memory recipientsResult) {\n\t\t\t\trecipients = recipientsResult;\n\t\t\t} catch {\n\t\t\t\treturn feesRecipients;\n\t\t\t}\n\t\t\tuint[] memory fees;\n\t\t\ttry withFees.getFeeBps(tokenId) returns (uint[] memory feesResult) {\n\t\t\t\tfees = feesResult;\n\t\t\t} catch {\n\t\t\t\treturn feesRecipients;\n\t\t\t}\n\t\t\tif (fees.length != recipients.length) {\n\t\t\t\treturn feesRecipients;\n\t\t\t}\n\t\t\tfeesRecipients = new LibPart.Part[](fees.length);\n\t\t\tfor (uint256 i = 0; i < fees.length; i++) {\n\t\t\t\tfeesRecipients[i].value = uint96(fees[i]);\n\t\t\t\tfeesRecipients[i].account = recipients[i];\n\t\t\t}\n\t\t}\n\t\treturn feesRecipients;\n\t}\n\n\tfunction providerExtractor(address token) internal returns (bool result, LibPart.Part[] memory royalties) {\n\t\taddress provider = royaltiesProviders[token];\n\t\tif (provider != address(0x0)) {\n\t\t\tIRoyaltiesProvider withRoyalties = IRoyaltiesProvider(provider);\n\t\t\ttry withRoyalties.getRoyalties(token, 0x0) returns (LibPart.Part[] memory royaltiesByProvider) {\n\t\t\t\troyalties = royaltiesByProvider;\n\t\t\t\tresult = true;\n\t\t\t} catch { }\n\t\t}\n\t}\n\n\tuint256[46] private __gap;\n}\n",
  "sourcePath": "F:/Development/ideasoft/dArtFlex/protocol-contracts/exchange-v2/contracts/exchange/v2/RoyaltiesRegistry.sol",
  "compiler": {
    "name": "solc",
    "version": "0.7.6+commit.7338295f.Emscripten.clang"
  },
  "schemaVersion": "3.4.1",
  "updatedAt": "2021-09-22T12:50:41.864Z",
  "devdoc": {
    "kind": "dev",
    "methods": {
      "owner()": {
        "details": "Returns the address of the current owner."
      },
      "renounceOwnership()": {
        "details": "Leaves the contract without owner. It will not be possible to call `onlyOwner` functions anymore. Can only be called by the current owner. NOTE: Renouncing ownership will leave the contract without an owner, thereby removing any functionality that is only available to the owner."
      },
      "transferOwnership(address)": {
        "details": "Transfers ownership of the contract to a new account (`newOwner`). Can only be called by the current owner."
      }
    },
    "version": 1
  },
  "userdoc": {
    "kind": "user",
    "methods": {},
    "version": 1
  }
}