{
  "contractName": "RoyaltiesRegistry",
  "abi": [
    {
      "anonymous": false,
      "inputs": [
        {
          "indexed": true,
          "internalType": "address",
          "name": "previousOwner",
          "type": "address"
        },
        {
          "indexed": true,
          "internalType": "address",
          "name": "newOwner",
          "type": "address"
        }
      ],
      "name": "OwnershipTransferred",
      "type": "event"
    },
    {
      "inputs": [],
      "name": "owner",
      "outputs": [
        {
          "internalType": "address",
          "name": "",
          "type": "address"
        }
      ],
      "stateMutability": "view",
      "type": "function",
      "constant": true
    },
    {
      "inputs": [],
      "name": "renounceOwnership",
      "outputs": [],
      "stateMutability": "nonpayable",
      "type": "function"
    },
    {
      "inputs": [
        {
          "internalType": "address",
          "name": "",
          "type": "address"
        }
      ],
      "name": "royaltiesByToken",
      "outputs": [
        {
          "internalType": "bool",
          "name": "initialized",
          "type": "bool"
        }
      ],
      "stateMutability": "view",
      "type": "function",
      "constant": true
    },
    {
      "inputs": [
        {
          "internalType": "bytes32",
          "name": "",
          "type": "bytes32"
        }
      ],
      "name": "royaltiesByTokenAndTokenId",
      "outputs": [
        {
          "internalType": "bool",
          "name": "initialized",
          "type": "bool"
        }
      ],
      "stateMutability": "view",
      "type": "function",
      "constant": true
    },
    {
      "inputs": [
        {
          "internalType": "address",
          "name": "",
          "type": "address"
        }
      ],
      "name": "royaltiesProviders",
      "outputs": [
        {
          "internalType": "address",
          "name": "",
          "type": "address"
        }
      ],
      "stateMutability": "view",
      "type": "function",
      "constant": true
    },
    {
      "inputs": [
        {
          "internalType": "address",
          "name": "newOwner",
          "type": "address"
        }
      ],
      "name": "transferOwnership",
      "outputs": [],
      "stateMutability": "nonpayable",
      "type": "function"
    },
    {
      "inputs": [],
      "name": "initializeRoyaltiesRegistry",
      "outputs": [],
      "stateMutability": "nonpayable",
      "type": "function"
    },
    {
      "inputs": [
        {
          "internalType": "address",
          "name": "token",
          "type": "address"
        },
        {
          "internalType": "address",
          "name": "provider",
          "type": "address"
        }
      ],
      "name": "setProviderByToken",
      "outputs": [],
      "stateMutability": "nonpayable",
      "type": "function"
    },
    {
      "inputs": [
        {
          "internalType": "address",
          "name": "token",
          "type": "address"
        },
        {
          "components": [
            {
              "internalType": "address payable",
              "name": "account",
              "type": "address"
            },
            {
              "internalType": "uint96",
              "name": "value",
              "type": "uint96"
            }
          ],
          "internalType": "struct LibPart.Part[]",
          "name": "royalties",
          "type": "tuple[]"
        }
      ],
      "name": "setRoyaltiesByToken",
      "outputs": [],
      "stateMutability": "nonpayable",
      "type": "function"
    },
    {
      "inputs": [
        {
          "internalType": "address",
          "name": "token",
          "type": "address"
        },
        {
          "internalType": "uint256",
          "name": "tokenId",
          "type": "uint256"
        },
        {
          "components": [
            {
              "internalType": "address payable",
              "name": "account",
              "type": "address"
            },
            {
              "internalType": "uint96",
              "name": "value",
              "type": "uint96"
            }
          ],
          "internalType": "struct LibPart.Part[]",
          "name": "royalties",
          "type": "tuple[]"
        }
      ],
      "name": "setRoyaltiesByTokenAndTokenId",
      "outputs": [],
      "stateMutability": "nonpayable",
      "type": "function"
    },
    {
      "inputs": [
        {
          "internalType": "address",
          "name": "token",
          "type": "address"
        },
        {
          "internalType": "uint256",
          "name": "tokenId",
          "type": "uint256"
        }
      ],
      "name": "getRoyalties",
      "outputs": [
        {
          "components": [
            {
              "internalType": "address payable",
              "name": "account",
              "type": "address"
            },
            {
              "internalType": "uint96",
              "name": "value",
              "type": "uint96"
            }
          ],
          "internalType": "struct LibPart.Part[]",
          "name": "",
          "type": "tuple[]"
        }
      ],
      "stateMutability": "nonpayable",
      "type": "function"
    }
  ],
  "bytecode": "0x608060405234801561001057600080fd5b50611862806100206000396000f3fe608060405234801561001057600080fd5b50600436106100a95760003560e01c8063acf14efb11610071578063acf14efb1461011e578063c652885f14610131578063d1da3cce14610144578063d836f01314610157578063f2fde38b1461016a578063f39cc7061461017d576100a9565b806305df952f146100ae57806318b7b582146100d7578063715018a6146100e15780638da5cb5b146100e95780639ca7dc7a146100fe575b600080fd5b6100c16100bc366004611124565b610190565b6040516100ce9190611528565b60405180910390f35b6100df6101a5565b005b6100df61024f565b6100f161030d565b6040516100ce919061149a565b61011161010c3660046111e9565b61031c565b6040516100ce91906114c7565b6100df61012c36600461119b565b6104f3565b6100df61013f366004611214565b6106a8565b6100c1610152366004611482565b6106c1565b6100df610165366004611163565b6106d6565b6100df610178366004611124565b61070d565b6100f161018b366004611124565b610822565b60666020526000908152604090205460ff1681565b600054610100900460ff16806101be57506101be61083d565b806101cc575060005460ff16155b6102075760405162461bcd60e51b815260040180806020018281038252602e8152602001806117ff602e913960400191505060405180910390fd5b600054610100900460ff16158015610232576000805460ff1961ff0019909116610100171660011790555b61023a61084e565b801561024c576000805461ff00191690555b50565b610257610947565b6001600160a01b031661026861030d565b6001600160a01b0316146102c3576040805162461bcd60e51b815260206004820181905260248201527f4f776e61626c653a2063616c6c6572206973206e6f7420746865206f776e6572604482015290519081900360640190fd5b6033546040516000916001600160a01b0316907f8be0079c531659141344cd1fd0a4f28419497f9722a3daafe3b4186f6b6457e0908390a3603380546001600160a01b0319169055565b6033546001600160a01b031690565b606060006065600085856040516020016103379291906114ae565b60408051601f198184030181529181528151602092830120835282820193909352908201600090812083518085018552815460ff161515815260018201805486518187028101870190975280875291959294868101949192919084015b828210156103e357600084815260209081902060408051808201909152908401546001600160a01b0381168252600160a01b90046001600160601b031681830152825260019092019101610394565b505050915250508051909150156103ff576020015190506104ed565b6001600160a01b038416600090815260666020908152604080832081518083018352815460ff16151581526001820180548451818702810187019095528085529195929486810194939192919084015b8282101561049e57600084815260209081902060408051808201909152908401546001600160a01b0381168252600160a01b90046001600160601b03168183015282526001909201910161044f565b505050915250508051909150156104ba576020015190506104ed565b6000806104c68661094b565b9092509050816104dd576104da8686610a09565b90505b6104e8868683610dc4565b925050505b92915050565b6104fc82610f7b565b6000805b82518110156106605760006001600160a01b031683828151811061052057fe5b6020026020010151600001516001600160a01b0316141561055c5760405162461bcd60e51b815260040161055390611548565b60405180910390fd5b82818151811061056857fe5b6020026020010151602001516001600160601b03166000141561059d5760405162461bcd60e51b815260040161055390611594565b60666000856001600160a01b03166001600160a01b031681526020019081526020016000206001018382815181106105d157fe5b602090810291909101810151825460018101845560009384529282902081519301805491909201516001600160601b0316600160a01b026001600160a01b039384166001600160a01b031990921691909117909216919091179055825183908290811061063a57fe5b6020026020010151602001516001600160601b0316820191508080600101915050610500565b5061271081106106825760405162461bcd60e51b8152600401610553906115e0565b50506001600160a01b03166000908152606660205260409020805460ff19166001179055565b6106b183610f7b565b6106bc838383610dc4565b505050565b60656020526000908152604090205460ff1681565b6106df82610f7b565b6001600160a01b03918216600090815260676020526040902080546001600160a01b03191691909216179055565b610715610947565b6001600160a01b031661072661030d565b6001600160a01b031614610781576040805162461bcd60e51b815260206004820181905260248201527f4f776e61626c653a2063616c6c6572206973206e6f7420746865206f776e6572604482015290519081900360640190fd5b6001600160a01b0381166107c65760405162461bcd60e51b81526004018080602001828103825260268152602001806117d96026913960400191505060405180910390fd5b6033546040516001600160a01b038084169216907f8be0079c531659141344cd1fd0a4f28419497f9722a3daafe3b4186f6b6457e090600090a3603380546001600160a01b0319166001600160a01b0392909216919091179055565b6067602052600090815260409020546001600160a01b031681565b600061084830611051565b15905090565b600054610100900460ff1680610867575061086761083d565b80610875575060005460ff16155b6108b05760405162461bcd60e51b815260040180806020018281038252602e8152602001806117ff602e913960400191505060405180910390fd5b600054610100900460ff161580156108db576000805460ff1961ff0019909116610100171660011790555b60006108e5610947565b603380546001600160a01b0319166001600160a01b038316908117909155604051919250906000907f8be0079c531659141344cd1fd0a4f28419497f9722a3daafe3b4186f6b6457e0908290a350801561024c576000805461ff001916905550565b3390565b6001600160a01b038082166000908152606760205260408120549091606091168015610a0357604051634e53ee3d60e11b815281906001600160a01b03821690639ca7dc7a906109a29088906000906004016114ae565b600060405180830381600087803b1580156109bc57600080fd5b505af19250505080156109f157506040513d6000823e601f3d908101601f191682016040526109ee9190810190611304565b60015b6109fa57610a01565b6001945092505b505b50915091565b6040516301ffc9a760e01b81526060906001600160a01b038416906301ffc9a790610a3f90631131d2f360e21b90600401611533565b60206040518083038186803b158015610a5757600080fd5b505afa158015610a6b573d6000803e3d6000fd5b505050506040513d601f19601f82011682018060405250810190610a8f9190611462565b15610b2757604051635d9dd7eb60e11b815283906001600160a01b0382169063bb3bafd690610ac2908690600401611763565b60006040518083038186803b158015610ada57600080fd5b505afa925050508015610b0f57506040513d6000823e601f3d908101601f19168201604052610b0c9190810190611304565b60015b610b1857610b21565b91506104ed9050565b506104ed565b6040516301ffc9a760e01b81526001600160a01b038416906301ffc9a790610b5a90632dde656160e21b90600401611533565b60206040518083038186803b158015610b7257600080fd5b505afa158015610b86573d6000803e3d6000fd5b505050506040513d601f19601f82011682018060405250810190610baa9190611462565b156104ed5760405163b9c4d9fb60e01b815283906060906001600160a01b0383169063b9c4d9fb90610be0908790600401611763565b60006040518083038186803b158015610bf857600080fd5b505afa925050508015610c2d57506040513d6000823e601f3d908101601f19168201604052610c2a919081019061126b565b60015b610c385750506104ed565b9050604051630ebd4c7f60e01b81526060906001600160a01b03841690630ebd4c7f90610c69908890600401611763565b60006040518083038186803b158015610c8157600080fd5b505afa925050508015610cb657506040513d6000823e601f3d908101601f19168201604052610cb391908101906113de565b60015b610cc2575050506104ed565b90508151815114610cd5575050506104ed565b805167ffffffffffffffff81118015610ced57600080fd5b50604051908082528060200260200182016040528015610d2757816020015b610d14611057565b815260200190600190039081610d0c5790505b50935060005b8151811015610dba57818181518110610d4257fe5b6020026020010151858281518110610d5657fe5b6020026020010151602001906001600160601b031690816001600160601b031681525050828181518110610d8657fe5b6020026020010151858281518110610d9a57fe5b60209081029190910101516001600160a01b039091169052600101610d2d565b5050505092915050565b6000808484604051602001610dda9291906114ae565b60405160208183030381529060405280519060200120905060005b8351811015610f3a5760006001600160a01b0316848281518110610e1557fe5b6020026020010151600001516001600160a01b03161415610e485760405162461bcd60e51b81526004016105539061170d565b838181518110610e5457fe5b6020026020010151602001516001600160601b031660001415610e895760405162461bcd60e51b8152600401610553906116b7565b60656000838152602001908152602001600020600101848281518110610eab57fe5b602090810291909101810151825460018101845560009384529282902081519301805491909201516001600160601b0316600160a01b026001600160a01b039384166001600160a01b0319909216919091179092169190911790558351849082908110610f1457fe5b6020026020010151602001516001600160601b0316830192508080600101915050610df5565b506127108210610f5c5760405162461bcd60e51b81526004016105539061162a565b6000908152606560205260409020805460ff1916600117905550505050565b610f83610947565b6001600160a01b0316610f9461030d565b6001600160a01b0316141580156110345750610fae610947565b6001600160a01b0316816001600160a01b0316638da5cb5b6040518163ffffffff1660e01b815260040160206040518083038186803b158015610ff057600080fd5b505afa158015611004573d6000803e3d6000fd5b505050506040513d601f19601f820116820180604052508101906110289190611147565b6001600160a01b031614155b1561024c5760405162461bcd60e51b815260040161055390611680565b3b151590565b604080518082019091526000808252602082015290565b600082601f83011261107e578081fd5b8135602061109361108e83611790565b61176c565b828152818101908583016040808602880185018910156110b1578687fd5b865b868110156111165781838b0312156110c9578788fd5b815182810181811067ffffffffffffffff821117156110e457fe5b835283356110f1816117ae565b815283870135611100816117c3565b81880152855293850193918101916001016110b3565b509198975050505050505050565b600060208284031215611135578081fd5b8135611140816117ae565b9392505050565b600060208284031215611158578081fd5b8151611140816117ae565b60008060408385031215611175578081fd5b8235611180816117ae565b91506020830135611190816117ae565b809150509250929050565b600080604083850312156111ad578182fd5b82356111b8816117ae565b9150602083013567ffffffffffffffff8111156111d3578182fd5b6111df8582860161106e565b9150509250929050565b600080604083850312156111fb578182fd5b8235611206816117ae565b946020939093013593505050565b600080600060608486031215611228578081fd5b8335611233816117ae565b925060208401359150604084013567ffffffffffffffff811115611255578182fd5b6112618682870161106e565b9150509250925092565b6000602080838503121561127d578182fd5b825167ffffffffffffffff811115611293578283fd5b8301601f810185136112a3578283fd5b80516112b161108e82611790565b81815283810190838501858402850186018910156112cd578687fd5b8694505b838510156112f85780516112e4816117ae565b8352600194909401939185019185016112d1565b50979650505050505050565b60006020808385031215611316578182fd5b825167ffffffffffffffff8082111561132d578384fd5b818501915085601f830112611340578384fd5b815161134e61108e82611790565b818152848101908486016040808502870188018b101561136c578889fd5b8896505b848710156113cf5780828c031215611386578889fd5b8051818101818110888211171561139957fe5b825282516113a6816117ae565b8152828901516113b5816117c3565b818a01528452600196909601959287019290810190611370565b50909998505050505050505050565b600060208083850312156113f0578182fd5b825167ffffffffffffffff811115611406578283fd5b8301601f81018513611416578283fd5b805161142461108e82611790565b8181528381019083850185840285018601891015611440578687fd5b8694505b838510156112f8578051835260019490940193918501918501611444565b600060208284031215611473578081fd5b81518015158114611140578182fd5b600060208284031215611493578081fd5b5035919050565b6001600160a01b0391909116815260200190565b6001600160a01b03929092168252602082015260400190565b602080825282518282018190526000919060409081850190868401855b8281101561151b57815180516001600160a01b031685528601516001600160601b03168685015292840192908501906001016114e4565b5091979650505050505050565b901515815260200190565b6001600160e01b031991909116815260200190565b6020808252602c908201527f526f79616c746965734279546f6b656e20726563697069656e742073686f756c60408201526b19081899481c1c995cd95b9d60a21b606082015260800190565b6020808252602c908201527f4665652076616c756520666f7220526f79616c746965734279546f6b656e207360408201526b0686f756c64206265203e20360a41b606082015260800190565b6020808252602a908201527f53657420627920746f6b656e20726f79616c746965732073756d206d6f72652c604082015269207468616e203130302560b01b606082015260800190565b60208082526036908201527f53657420627920746f6b656e20616e6420746f6b656e496420726f79616c746960408201527565732073756d206d6f72652c207468616e203130302560501b606082015260800190565b60208082526018908201527f546f6b656e206f776e6572206e6f742064657465637465640000000000000000604082015260600190565b60208082526036908201527f4665652076616c756520666f7220526f79616c746965734279546f6b656e416e604082015275064546f6b656e49642073686f756c64206265203e20360541b606082015260800190565b60208082526036908201527f526f79616c746965734279546f6b656e416e64546f6b656e49642072656369706040820152751a595b9d081cda1bdd5b19081899481c1c995cd95b9d60521b606082015260800190565b90815260200190565b60405181810167ffffffffffffffff8111828210171561178857fe5b604052919050565b600067ffffffffffffffff8211156117a457fe5b5060209081020190565b6001600160a01b038116811461024c57600080fd5b6001600160601b038116811461024c57600080fdfe4f776e61626c653a206e6577206f776e657220697320746865207a65726f2061646472657373496e697469616c697a61626c653a20636f6e747261637420697320616c726561647920696e697469616c697a6564a2646970667358221220eacd825259a42a6d140e7c6145d75a2e7140f5fc1ccdc6ff6cb36e19491d3db264736f6c63430007060033",
  "immutableReferences": {},
  "source": "// SPDX-License-Identifier: MIT\r\n\r\npragma solidity >=0.6.9 <0.8.0;\r\npragma abicoder v2;\r\n\r\nimport \"@rarible/royalties/contracts/IRoyaltiesProvider.sol\";\r\nimport \"@rarible/royalties/contracts/LibRoyaltiesV2.sol\";\r\nimport \"@rarible/royalties/contracts/LibRoyaltiesV1.sol\";\r\nimport \"@rarible/royalties/contracts/impl/RoyaltiesV1Impl.sol\";\r\nimport \"@rarible/royalties/contracts/impl/RoyaltiesV2Impl.sol\";\r\nimport \"@openzeppelin/contracts-upgradeable/token/ERC721/IERC721Upgradeable.sol\";\r\nimport \"@openzeppelin/contracts-upgradeable/access/OwnableUpgradeable.sol\";\r\n\r\ncontract RoyaltiesRegistry is IRoyaltiesProvider, OwnableUpgradeable {\r\n\r\n\tstruct RoyaltiesSet {\r\n\t\tbool initialized;\r\n\t\tLibPart.Part[] royalties;\r\n\t}\r\n\r\n\tmapping(bytes32 => RoyaltiesSet) public royaltiesByTokenAndTokenId;\r\n\tmapping(address => RoyaltiesSet) public royaltiesByToken;\r\n\tmapping(address => address) public royaltiesProviders;\r\n\r\n\tfunction initializeRoyaltiesRegistry() external initializer {\r\n\t\t__Ownable_init_unchained();\r\n\t}\r\n\r\n\tfunction setProviderByToken(address token, address provider) external {\r\n\t\tcheckOwner(token);\r\n\t\troyaltiesProviders[token] = provider;\r\n\t}\r\n\r\n\tfunction setRoyaltiesByToken(address token, LibPart.Part[] memory royalties) external {\r\n\t\tcheckOwner(token);\r\n\t\tuint sumRoyalties = 0;\r\n\t\tfor (uint i = 0; i < royalties.length; i++) {\r\n\t\t\trequire(royalties[i].account != address(0x0), \"RoyaltiesByToken recipient should be present\");\r\n\t\t\trequire(royalties[i].value != 0, \"Fee value for RoyaltiesByToken should be > 0\");\r\n\t\t\troyaltiesByToken[token].royalties.push(royalties[i]);\r\n\t\t\tsumRoyalties += royalties[i].value;\r\n\t\t}\r\n\t\trequire(sumRoyalties < 10000, \"Set by token royalties sum more, than 100%\");\r\n\t\troyaltiesByToken[token].initialized = true;\r\n\t}\r\n\r\n\tfunction setRoyaltiesByTokenAndTokenId(address token, uint tokenId, LibPart.Part[] memory royalties) external {\r\n\t\tcheckOwner(token);\r\n\t\tsetRoyaltiesCacheByTokenAndTokenId(token, tokenId, royalties);\r\n\t}\r\n\r\n\tfunction checkOwner(address token) internal view {\r\n\t\tif ((owner() != _msgSender()) && (OwnableUpgradeable(token).owner() != _msgSender())){\r\n\t\t\trevert(\"Token owner not detected\");\r\n\t\t}\r\n\t}\r\n\r\n\tfunction getRoyalties(address token, uint tokenId) override external returns (LibPart.Part[] memory) {\r\n\t\tRoyaltiesSet memory royaltiesSet = royaltiesByTokenAndTokenId[keccak256(abi.encode(token, tokenId))];\r\n\t\tif (royaltiesSet.initialized) {\r\n\t\t\treturn royaltiesSet.royalties;\r\n\t\t}\r\n\t\troyaltiesSet = royaltiesByToken[token];\r\n\t\tif (royaltiesSet.initialized) {\r\n\t\t\treturn royaltiesSet.royalties;\r\n\t\t}\r\n\t\t(bool result, LibPart.Part[] memory resultRoyalties) = providerExtractor(token);\r\n\t\tif (result == false) {\r\n\t\t\tresultRoyalties = royaltiesFromContract(token, tokenId);\r\n\t\t}\r\n\t\tsetRoyaltiesCacheByTokenAndTokenId (token, tokenId, resultRoyalties);\r\n\t\treturn resultRoyalties;\r\n\t}\r\n\r\n\tfunction setRoyaltiesCacheByTokenAndTokenId(address token, uint tokenId, LibPart.Part[] memory royalties) internal {\r\n\t\tuint sumRoyalties = 0;\r\n\t\tbytes32 key = keccak256(abi.encode(token, tokenId));\r\n\t\tfor (uint i = 0; i < royalties.length; i++) {\r\n\t\t\trequire(royalties[i].account != address(0x0), \"RoyaltiesByTokenAndTokenId recipient should be present\");\r\n\t\t\trequire(royalties[i].value != 0, \"Fee value for RoyaltiesByTokenAndTokenId should be > 0\");\r\n\t\t\troyaltiesByTokenAndTokenId[key].royalties.push(royalties[i]);\r\n\t\t\tsumRoyalties += royalties[i].value;\r\n\t\t}\r\n\t\trequire(sumRoyalties < 10000, \"Set by token and tokenId royalties sum more, than 100%\");\r\n\t\troyaltiesByTokenAndTokenId[key].initialized = true;\r\n\t}\r\n\r\n\tfunction royaltiesFromContract(address token, uint tokenId) internal view returns (LibPart.Part[] memory feesRecipients) {\r\n\t\tif (IERC165Upgradeable(token).supportsInterface(LibRoyaltiesV2._INTERFACE_ID_ROYALTIES)) {\r\n\t\t\tRoyaltiesV2Impl withFees = RoyaltiesV2Impl(token);\r\n\t\t\ttry withFees.getRoyalties(tokenId) returns (LibPart.Part[] memory feesRecipientsResult) {\r\n\t\t\t\treturn feesRecipientsResult;\r\n\t\t\t} catch {}\r\n\t\t} else if (IERC165Upgradeable(token).supportsInterface(LibRoyaltiesV1._INTERFACE_ID_FEES)) {\r\n\t\t\tRoyaltiesV1Impl withFees = RoyaltiesV1Impl(token);\r\n\t\t\taddress payable[] memory recipients;\r\n\t\t\ttry withFees.getFeeRecipients(tokenId) returns (address payable[] memory recipientsResult) {\r\n\t\t\t\trecipients = recipientsResult;\r\n\t\t\t} catch {\r\n\t\t\t\treturn feesRecipients;\r\n\t\t\t}\r\n\t\t\tuint[] memory fees;\r\n\t\t\ttry withFees.getFeeBps(tokenId) returns (uint[] memory feesResult) {\r\n\t\t\t\tfees = feesResult;\r\n\t\t\t} catch {\r\n\t\t\t\treturn feesRecipients;\r\n\t\t\t}\r\n\t\t\tif (fees.length != recipients.length) {\r\n\t\t\t\treturn feesRecipients;\r\n\t\t\t}\r\n\t\t\tfeesRecipients = new LibPart.Part[](fees.length);\r\n\t\t\tfor (uint256 i = 0; i < fees.length; i++) {\r\n\t\t\t\tfeesRecipients[i].value = uint96(fees[i]);\r\n\t\t\t\tfeesRecipients[i].account = recipients[i];\r\n\t\t\t}\r\n\t\t}\r\n\t\treturn feesRecipients;\r\n\t}\r\n\r\n\tfunction providerExtractor(address token) internal returns (bool result, LibPart.Part[] memory royalties) {\r\n\t\taddress provider = royaltiesProviders[token];\r\n\t\tif (provider != address(0x0)) {\r\n\t\t\tIRoyaltiesProvider withRoyalties = IRoyaltiesProvider(provider);\r\n\t\t\ttry withRoyalties.getRoyalties(token, 0x0) returns (LibPart.Part[] memory royaltiesByProvider) {\r\n\t\t\t\troyalties = royaltiesByProvider;\r\n\t\t\t\tresult = true;\r\n\t\t\t} catch { }\r\n\t\t}\r\n\t}\r\n\r\n\tuint256[46] private __gap;\r\n}\r\n",
  "sourcePath": "F:/Development/protocol-contracts/exchange-v2/contracts/RoyaltiesRegistry.sol",
  "compiler": {
    "name": "solc",
    "version": "0.7.6+commit.7338295f.Emscripten.clang"
  },
  "schemaVersion": "3.3.2",
  "updatedAt": "2021-05-17T05:18:02.419Z",
  "networkType": "ethereum",
  "devdoc": {
    "kind": "dev",
    "methods": {
      "owner()": {
        "details": "Returns the address of the current owner."
      },
      "renounceOwnership()": {
        "details": "Leaves the contract without owner. It will not be possible to call `onlyOwner` functions anymore. Can only be called by the current owner. NOTE: Renouncing ownership will leave the contract without an owner, thereby removing any functionality that is only available to the owner."
      },
      "transferOwnership(address)": {
        "details": "Transfers ownership of the contract to a new account (`newOwner`). Can only be called by the current owner."
      }
    },
    "version": 1
  },
  "userdoc": {
    "kind": "user",
    "methods": {},
    "version": 1
  }
}