{
  "contractName": "TransferProxyForDeprecated",
  "abi": [
    {
      "anonymous": false,
      "inputs": [
        {
          "indexed": true,
          "internalType": "address",
          "name": "previousOwner",
          "type": "address"
        },
        {
          "indexed": true,
          "internalType": "address",
          "name": "newOwner",
          "type": "address"
        }
      ],
      "name": "OwnershipTransferred",
      "type": "event"
    },
    {
      "inputs": [],
      "name": "ERC721_DEP_ASSET_TYPE",
      "outputs": [
        {
          "internalType": "bytes4",
          "name": "",
          "type": "bytes4"
        }
      ],
      "stateMutability": "view",
      "type": "function"
    },
    {
      "inputs": [],
      "name": "__OperatorRole_init",
      "outputs": [],
      "stateMutability": "nonpayable",
      "type": "function"
    },
    {
      "inputs": [
        {
          "internalType": "address",
          "name": "operator",
          "type": "address"
        }
      ],
      "name": "addOperator",
      "outputs": [],
      "stateMutability": "nonpayable",
      "type": "function"
    },
    {
      "inputs": [],
      "name": "owner",
      "outputs": [
        {
          "internalType": "address",
          "name": "",
          "type": "address"
        }
      ],
      "stateMutability": "view",
      "type": "function"
    },
    {
      "inputs": [
        {
          "internalType": "address",
          "name": "operator",
          "type": "address"
        }
      ],
      "name": "removeOperator",
      "outputs": [],
      "stateMutability": "nonpayable",
      "type": "function"
    },
    {
      "inputs": [],
      "name": "renounceOwnership",
      "outputs": [],
      "stateMutability": "nonpayable",
      "type": "function"
    },
    {
      "inputs": [
        {
          "internalType": "address",
          "name": "newOwner",
          "type": "address"
        }
      ],
      "name": "transferOwnership",
      "outputs": [],
      "stateMutability": "nonpayable",
      "type": "function"
    },
    {
      "inputs": [],
      "name": "__TransferProxyForDeprecated_init",
      "outputs": [],
      "stateMutability": "nonpayable",
      "type": "function"
    },
    {
      "inputs": [
        {
          "components": [
            {
              "components": [
                {
                  "internalType": "bytes4",
                  "name": "assetClass",
                  "type": "bytes4"
                },
                {
                  "internalType": "bytes",
                  "name": "data",
                  "type": "bytes"
                }
              ],
              "internalType": "struct LibAsset.AssetType",
              "name": "assetType",
              "type": "tuple"
            },
            {
              "internalType": "uint256",
              "name": "value",
              "type": "uint256"
            }
          ],
          "internalType": "struct LibAsset.Asset",
          "name": "asset",
          "type": "tuple"
        },
        {
          "internalType": "address",
          "name": "from",
          "type": "address"
        },
        {
          "internalType": "address",
          "name": "to",
          "type": "address"
        }
      ],
      "name": "transfer",
      "outputs": [],
      "stateMutability": "nonpayable",
      "type": "function"
    }
  ],
  "bytecode": "0x608060405234801561001057600080fd5b50610c2d806100206000396000f3fe608060405234801561001057600080fd5b50600436106100935760003560e01c806375f7aa4f1161006657806375f7aa4f146100db5780638da5cb5b146100e35780639870d7fe146100f8578063ac8a584a1461010b578063f2fde38b1461011e57610093565b80632ff26a0a146100985780634a3a282a146100a257806354bc0cf1146100c0578063715018a6146100d3575b600080fd5b6100a0610131565b005b6100aa6101e3565b6040516100b79190610aa6565b60405180910390f35b6100a06100ce366004610928565b610207565b6100a06103b9565b6100a0610465565b6100eb6104fa565b6040516100b79190610a6e565b6100a06101063660046108d8565b610509565b6100a06101193660046108d8565b61058f565b6100a061012c3660046108d8565b610612565b600054610100900460ff168061014a575061014a610715565b80610158575060005460ff16155b6101935760405162461bcd60e51b815260040180806020018281038252602e815260200180610b82602e913960400191505060405180910390fd5b600054610100900460ff161580156101be576000805460ff1961ff0019909116610100171660011790555b6101c6610726565b6101ce6107c6565b80156101e0576000805461ff00191690555b50565b7fc0ab004bd2f7ebb1e7d6bcc670c5e6004034bef97a7979534d3907f787f5f8ad81565b6002606654141561025f576040805162461bcd60e51b815260206004820152601f60248201527f5265656e7472616e637947756172643a207265656e7472616e742063616c6c00604482015290519081900360640190fd5b6002606655606560006102706108bf565b6001600160a01b0316815260208101919091526040016000205460ff166102c85760405162461bcd60e51b8152600401808060200182810382526028815260200180610bd06028913960400191505060405180910390fd5b8251516001600160e01b03191663c0ab004b60e01b146103035760405162461bcd60e51b81526004016102fa90610abb565b60405180910390fd5b82602001516001146103275760405162461bcd60e51b81526004016102fa90610af2565b60008084600001516020015180602001905181019061034691906108fb565b6040516323b872dd60e01b815291935091506001600160a01b038316906323b872dd9061037b90879087908690600401610a82565b600060405180830381600087803b15801561039557600080fd5b505af11580156103a9573d6000803e3d6000fd5b5050600160665550505050505050565b6103c16108bf565b6001600160a01b03166103d26104fa565b6001600160a01b03161461041b576040805162461bcd60e51b81526020600482018190526024820152600080516020610bb0833981519152604482015290519081900360640190fd5b6033546040516000916001600160a01b0316907f8be0079c531659141344cd1fd0a4f28419497f9722a3daafe3b4186f6b6457e0908390a3603380546001600160a01b0319169055565b600054610100900460ff168061047e575061047e610715565b8061048c575060005460ff16155b6104c75760405162461bcd60e51b815260040180806020018281038252602e815260200180610b82602e913960400191505060405180910390fd5b600054610100900460ff161580156104f2576000805460ff1961ff0019909116610100171660011790555b6101ce610131565b6033546001600160a01b031690565b6105116108bf565b6001600160a01b03166105226104fa565b6001600160a01b03161461056b576040805162461bcd60e51b81526020600482018190526024820152600080516020610bb0833981519152604482015290519081900360640190fd5b6001600160a01b03166000908152606560205260409020805460ff19166001179055565b6105976108bf565b6001600160a01b03166105a86104fa565b6001600160a01b0316146105f1576040805162461bcd60e51b81526020600482018190526024820152600080516020610bb0833981519152604482015290519081900360640190fd5b6001600160a01b03166000908152606560205260409020805460ff19169055565b61061a6108bf565b6001600160a01b031661062b6104fa565b6001600160a01b031614610674576040805162461bcd60e51b81526020600482018190526024820152600080516020610bb0833981519152604482015290519081900360640190fd5b6001600160a01b0381166106b95760405162461bcd60e51b8152600401808060200182810382526026815260200180610b5c6026913960400191505060405180910390fd5b6033546040516001600160a01b038084169216907f8be0079c531659141344cd1fd0a4f28419497f9722a3daafe3b4186f6b6457e090600090a3603380546001600160a01b0319166001600160a01b0392909216919091179055565b6000610720306108c3565b15905090565b600054610100900460ff168061073f575061073f610715565b8061074d575060005460ff16155b6107885760405162461bcd60e51b815260040180806020018281038252602e815260200180610b82602e913960400191505060405180910390fd5b600054610100900460ff161580156101ce576000805460ff1961ff00199091166101001716600117905580156101e0576000805461ff001916905550565b600054610100900460ff16806107df57506107df610715565b806107ed575060005460ff16155b6108285760405162461bcd60e51b815260040180806020018281038252602e815260200180610b82602e913960400191505060405180910390fd5b600054610100900460ff16158015610853576000805460ff1961ff0019909116610100171660011790555b600061085d6108bf565b603380546001600160a01b0319166001600160a01b038316908117909155604051919250906000907f8be0079c531659141344cd1fd0a4f28419497f9722a3daafe3b4186f6b6457e0908290a35080156101e0576000805461ff001916905550565b3390565b803b15155b919050565b80356108c881610b46565b6000602082840312156108e9578081fd5b81356108f481610b46565b9392505050565b6000806040838503121561090d578081fd5b825161091881610b46565b6020939093015192949293505050565b60008060006060848603121561093c578081fd5b833567ffffffffffffffff80821115610953578283fd5b81860191506040808389031215610968578384fd5b8051818101818110848211171561097b57fe5b80835284358481111561098c578687fd5b8501808b0384131561099c578687fd5b6080830182811086821117156109ae57fe5b845280356001600160e01b0319811681146109c7578788fd5b8252602081810135868111156109db578889fd5b8083019250508b601f8301126109ef578788fd5b8135868111156109fb57fe5b610a0d601f8201601f19168301610b22565b96508087528c82828501011115610a22578889fd5b808284018389013788828289010152508560608501528284528087013581850152839950610a51818c016108cd565b985050505050610a628188016108cd565b93505050509250925092565b6001600160a01b0391909116815260200190565b6001600160a01b039384168152919092166020820152604081019190915260600190565b6001600160e01b031991909116815260200190565b60208082526018908201527f6e6f7420737570706f7274656420617373657420747970650000000000000000604082015260600190565b6020808252601690820152753b30b63ab2903b30b634b230ba34b7b71032b93937b960511b604082015260600190565b60405181810167ffffffffffffffff81118282101715610b3e57fe5b604052919050565b6001600160a01b03811681146101e057600080fdfe4f776e61626c653a206e6577206f776e657220697320746865207a65726f2061646472657373496e697469616c697a61626c653a20636f6e747261637420697320616c726561647920696e697469616c697a65644f776e61626c653a2063616c6c6572206973206e6f7420746865206f776e65724f70657261746f72526f6c653a2063616c6c6572206973206e6f7420746865206f70657261746f72a26469706673582212204981d17d4c1feae637ffd92c4b44ad91afe4c96ff62b227a5390afcc151e1dcf64736f6c63430007060033",
  "immutableReferences": {},
  "source": "// SPDX-License-Identifier: MIT\n\npragma solidity >=0.6.9 <0.8.0;\npragma abicoder v2;\n\nimport \"../../roles/OperatorRole.sol\";\nimport \"./ITransferProxy.sol\";\nimport \"@openzeppelin/contracts-upgradeable/token/ERC721/IERC721Upgradeable.sol\";\nimport \"@openzeppelin/contracts-upgradeable/utils/ReentrancyGuardUpgradeable.sol\";\n\ncontract TransferProxyForDeprecated is Initializable, OperatorRole, ReentrancyGuardUpgradeable, ITransferProxy {\n    bytes4 constant public ERC721_DEP_ASSET_TYPE = bytes4(keccak256(\"ERC721_DEP\"));\n\n    function __TransferProxyForDeprecated_init() external initializer {\n        __Ownable_init();\n    }\n\n    function transfer(LibAsset.Asset memory asset, address from, address to) override external nonReentrant onlyOperator {\n        require(asset.assetType.assetClass == ERC721_DEP_ASSET_TYPE, \"not supported asset type\");\n        require(asset.value == 1, \"value validation error\");\n        (address token, uint tokenId) = abi.decode(asset.assetType.data, (address, uint));\n        IERC721Upgradeable(token).transferFrom(from, to, tokenId);\n    }\n}",
  "sourcePath": "F:/Development/ideasoft/dArtFlex/protocol-contracts/exchange-v2/contracts/exchange/v2/TransferProxyForDeprecated.sol",
  "compiler": {
    "name": "solc",
    "version": "0.7.6+commit.7338295f.Emscripten.clang"
  },
  "schemaVersion": "3.4.1",
  "updatedAt": "2021-09-22T12:50:41.912Z",
  "devdoc": {
    "kind": "dev",
    "methods": {
      "owner()": {
        "details": "Returns the address of the current owner."
      },
      "renounceOwnership()": {
        "details": "Leaves the contract without owner. It will not be possible to call `onlyOwner` functions anymore. Can only be called by the current owner. NOTE: Renouncing ownership will leave the contract without an owner, thereby removing any functionality that is only available to the owner."
      },
      "transferOwnership(address)": {
        "details": "Transfers ownership of the contract to a new account (`newOwner`). Can only be called by the current owner."
      }
    },
    "version": 1
  },
  "userdoc": {
    "kind": "user",
    "methods": {},
    "version": 1
  }
}